:020000040800F2
:10000000B850002029020008AD0F0008590F000861
:10001000A90F00082105000879120008000000005F
:100020000000000000000000000000002110000897
:100030002505000800000000B10F00084D10000861
:10004000430200084302000843020008430200087C
:10005000430200084302000843020008430200086C
:10006000430200084302000843020008430200085C
:10007000430200084302000843020008430200084C
:10008000430200084302000843020008430200083C
:10009000430200084302000843020008430200082C
:1000A000430200084302000843020008430200081C
:1000B000430200084302000843020008430200080C
:1000C00043020008430200084302000843020008FC
:1000D00043020008430200084302000843020008EC
:1000E00043020008430200084302000843020008DC
:1000F00043020008430200084302000843020008CC
:1001000043020008430200084302000843020008BB
:1001100043020008430200082911000843020008B6
:10012000430200084302000843020008430200089B
:10013000430200084302000843020008430200088B
:10014000430200084302000843020008430200087B
:10015000430200084302000843020008430200086B
:10016000430200084302000843020008430200085B
:100170004302000843020008430200080000000098
:10018000430200084302000800F002F800F03CF8C7
:100190000AA090E8000C82448344AAF10107DA45E2
:1001A00001D100F031F8AFF2090EBAE80F0013F0F8
:1001B000010F18BFFB1A43F001031847643C00000D
:1001C000843C0000103A24BF78C878C1FAD852079E
:1001D00024BF30C830C144BF04680C6070470000C1
:1001E0000023002400250026103A28BF78C1FBD840
:1001F000520728BF30C148BF0B6070471FB503F0DE
:10020000C2FD1FBD10B510BD00F04FF91146FFF73C
:10021000F5FF01F06BF800F06DF903B4FFF7F2FFA2
:1002200003BC00F075F90000094880470948004701
:10023000FEE7FEE7FEE7FEE7FEE7FEE7FEE7FEE796
:10024000FEE7FEE704480549054A064B70470000F3
:100250001511000889010008B84A0020B850002094
:10026000B84C0020B84C002053EA020C00F0698022
:100270002DE9F04B4FF00006002B1FBFB3FA83F5BA
:1002800003FA05F424FA05F65E4012BF1643B2FAEB
:1002900082F502FA05F4C5F120051EBF22FA05FC1D
:1002A00044EA0C04203556EA044C4FEA144418BFC3
:1002B000641C4FF000084FF00009904271EB030CF2
:1002C00039D3002919BFB1FA81F701FA07F6B0FA5C
:1002D00080F700FA07F6C7F120071EBF20FA07FCD7
:1002E00046EA0C062037B6FBF4FCA7EB0507103FE7
:1002F00007F01F0BCBF120062CFA06F60CFA0BFBCD
:1003000044BFB3460026202FA4BF5E464FF0000B2B
:100310005BEA060C08BF4FF0010B19EB0B0948EB29
:100320000608ABFB027C06FB02CC0BFB03CCC01B1C
:1003300071EB0C01C1E70B46024641464846BDE859
:10034000F08B13B5084318BF4FF0FF300146AFF3F1
:100350000080BDE81C407047032A40F2308010F056
:10036000030C00F0158011F8013BBCF1020F624450
:1003700098BF11F801CB00F8013B38BF11F8013BE1
:10038000A2F1040298BF00F801CB38BF00F8013B8E
:1003900011F0030300F05780083AC0F0088051F8CC
:1003A000043B083A51F804CBA0E80810F5E7121D09
:1003B0005CBF51F8043B40F8043BAFF30080D20728
:1003C00024BF11F8013B11F801CB48BF11F8012BF4
:1003D00024BF00F8013B00F801CB48BF00F8012B17
:1003E000704702F0FF0343EA032242EA024200F0B0
:1003F00002B84FF0000200B51346944696462039E5
:1004000022BFA0E80C50A0E80C50B1F12001BFF4CD
:10041000F7AF090728BFA0E80C5048BF0CC05DF833
:1004200004EB890028BF40F8042B08BF704748BF81
:1004300020F8022B11F0804F18BF00F8012B7047F5
:1004400070477047704710B5203AC0F00B80B1E894
:100450001850A0E81850B1E81850A0E81850203AF9
:10046000BFF4F5AF5FEA027C24BFB1E81850A0E802
:10047000185044BF18C918C0BDE810405FEA827C1C
:1004800024BF51F8043B40F8043B08BF7047D20733
:1004900028BF31F8023B48BF11F8012B28BF20F8D4
:1004A000023B48BF00F8012B7047754600F02CF85E
:1004B000AE4605006946534620F00700854618B051
:1004C00020B5FFF7BFFEBDE820404FF000064FF01B
:1004D00000074FF000084FF0000BAC46ACE8C00935
:1004E000ACE8C009ACE8C009ACE8C00921F00701DC
:1004F0008D46704710B50446AFF300802046BDE836
:100500001040FFF78ABE000000487047A00000209E
:1005100001491820ABBEFEE726000200704700002C
:10052000FEE700007047000044F2BC30C2F2000059
:100530000068704740F2000044F2BC31C2F2000093
:10054000C2F2000100780A68104408607047000099
:1005500080B543F60040C4F20200016841F4007126
:100560000160016841F480610160016841F48071BB
:100570000160032000F0C8F80F2000F005F800F03B
:1005800061F8002080BD000070B586B0002543F6FC
:1005900040010195C4F202010A68044642F01002CB
:1005A0000A60096801A801F01001019101996946EA
:1005B00000F06AF9049E002E18BF012600F084F9AD
:1005C0004DF68361B040C4F21B31A0FB01014FF036
:1005D000FF3000EB914140F2242041F20002C2F2D0
:1005E0000000C4F2000240F2E733C0E90021C0E994
:1005F00002530561856100F06FFB054610B1284686
:1006000006B070BD40F22420C2F2000000F094FB5E
:1006100005460028F3D1362000F036F80F2C0DD80F
:10062000362021460022002500F042F840F2040066
:10063000C2F200000460284606B070BD01252846BD
:1006400006B070BD82B0002043F640010190C4F2B4
:1006500002014A6842F480424A604A6802F48042D9
:100660000192019A00900868002240F080500860D2
:1006700008680F2100F08050009000986FF0010092
:1006800002B000F015B80000002848BF7047C1B2A2
:1006900000F01F00012202FA00F04EF20012CEF22A
:1006A000000242EAD10121F0030108607047000016
:1006B00010B54EF60C5CCEF2000CDCF80030C3F343
:1006C000022E8EF00704042C28BF0424BEF103037D
:1006D0004FF0FF3E0EFA04F438BF0023A1439940C7
:1006E0000EFA03F39A43114300F00F0200F1604346
:1006F0000901043A03F564436244002848BF02F14B
:100700000C03197010BD00004EF60C51CEF2000122
:100710000A684FF6FF031A4060F30A2242F0806035
:1007200040F0FD70086070472DE9F041002800F0AE
:100730008B8043F60808C4F202080446D8F8F80390
:100740000D4600F00700884207D288F8F853D8F821
:10075000F80300F00700A84276D12068810717D57A
:10076000410705D5D8F8001041F4E051C8F8001051
:10077000010705D5D8F8001041F46041C8F8001011
:10078000D8F80010A26821F0F0011143C8F8001059
:10079000C0073FD1D8F8F80300F00700A84207D9F6
:1007A00088F8F853D8F8F80300F00700A8424BD1B6
:1007B0002068410707D5D8F80010E26821F4E0511D
:1007C0001143C8F80010000708D5D8F800002169C7
:1007D00020F4604040EAC100C8F8000000F088F84A
:1007E000D8F8001043F6A052C1F30311C0F600027E
:1007F000515C40F2700220FA01F140F20400C2F2B2
:1008000000000068C2F200021160FFF7BDFE002088
:10081000BDE8F0816068811E022907D258F8081CE3
:1008200089015CBF0120BDE8F08111E0012807D1FA
:1008300058F8081C89035CBF0120BDE8F08107E07F
:1008400058F8081C890703D40120BDE8F08100BFD7
:10085000D8F8001021F003010843C8F80000FFF7A2
:1008600063FE064641F28837D8F80000616800F060
:100870000C00B0EB810F8DD0FFF756FE801BB84205
:10088000F2D90320BDE8F0810F22026043F608028E
:10089000C4F20202136803F003034360136803F019
:1008A000F0038360136803F4E053C360D2F800C020
:1008B0004FF4E05303EADC030361D2F8F80300F0DD
:1008C000070008607047000040F2700043F608011E
:1008D000C2F20000C4F202010068096843F6B05297
:1008E000C1F38221C0F60002515CC840704700008D
:1008F00010B543F60404C4F20204606800F00C0072
:1009000008280BD0042819BF42F20040C0F2F400BE
:1009100041F60030C0F2B70010BD00BF206821686A
:100920002368490241F60031C0F2B70100F03F02EE
:10093000C3F388105CBF42F20041C0F2F401A1FB96
:1009400000010023FFF790FC21680222C1F301415E
:1009500002EB4101B0FBF1F010BD00002DE9F041C8
:1009600082B0002868D00446007843F60006C0072D
:10097000C4F202060BD0B06800F00C00042840F06E
:100980009F803068800302D56068002854D02078AA
:1009900080071AD5B06810F00C0F09D0B06800F0CD
:1009A0000C00082840F0A6807068400200F1A28088
:1009B0003068800702D5E06801283DD130682169A0
:1009C00020F0F80040EAC10030602078000737D4FA
:1009D000207840074CD4A56955B3B06800F00C00EE
:1009E000082840F0BB80012D26D07068E16900F432
:1009F00080028A4220D1216A00F03F028A421BD144
:100A000047F6C071626A0140B1EB821F14D1A16A3E
:100A10004FF6FF73C903994300F44032A1F58031CA
:100A20008A4209D1E16A00F07060B0EB016F03D136
:100A3000002002B0BDE8F081012002B0BDE8F081E5
:100A40006069002840F20000C4F2472076D00121FE
:100A5000C0F8801EFFF768FD054600BF706F800775
:100A6000B6D4FFF761FD401B0228F7D9DDE000BFD7
:100A7000306C10F080580AD100200190306C40F0AA
:100A800080503064306C00F080500190019847F243
:100A90000007C4F200073868C00541D4386840F444
:100AA00080703860FFF740FD054600BF3868C0051C
:100AB00036D4FFF739FD401B0228F7D9B5E000BF57
:100AC000B06800F00C00082803D1706840023FF5C0
:100AD00058AF6068B0F5803F07D0B0F5A02F40F068
:100AE0008D80306840F480203060306840F4803081
:100AF00030608DE0E068002852D00020C4F247202A
:100B000001210160FFF710FD054600BF3068800736
:100B10003FF554AFFFF708FD401B0228F6D984E0EB
:100B2000A068012805D005284ED1306F40F00400A0
:100B30003067306F40F0010030674FE00021C0F8AF
:100B4000801EFFF7F1FC0546706F80077FF540AF10
:100B5000FFF7EAFC401B0228F6D966E00027C4F242
:100B6000472700203866FFF7DFFC022D05460BD132
:100B7000306880015ED5FFF7D7FC401B02284FF09C
:100B80000300F5D955E700BF306880017FF550AF0D
:100B9000FFF7CAFC401B02284FF00300F4D948E7D6
:100BA0000020C4F2472000210160FFF7BDFC05468C
:100BB000306880077FF509AFFFF7B6FC401B0228BD
:100BC0004FF00300F4D934E7316F002821F0010120
:100BD0003167316F21F0040131674DD0FFF7A4FC7C
:100BE000054641F2883700BF306F800756D4FFF7C3
:100BF0009BFC401BB842F7D917E000BF31680028C2
:100C000021F480313160316821F4802131604FD08E
:100C1000FFF78AFC054600BF306880033FF5B7AE9A
:100C2000FFF782FC401B6428F6D9032002B0BDE820
:100C3000F08100BF04F11C052FCD084340EA82106B
:100C4000D9034FF6FF729143A1F5803140EA056068
:100C50000843706001203866FFF766FC044600BF59
:100C6000306880013FF5E4AEFFF75EFC001B022810
:100C70004FF00300F4D9DCE6FFF756FC054641F2DD
:100C8000883700BF306F800708D5FFF74DFC401B49
:100C9000B8424FF00300F5D9CBE600BFB8F1000F22
:100CA0007FF499AE306C20F08050306493E600BF42
:100CB000FFF73AFC054600BF306880037FF567AE5A
:100CC000FFF732FC401B64284FF00300F4D9B0E674
:100CD0007047000070470000002804BF01207047E3
:100CE00010B5044690F83D0028B9002084F83C0077
:100CF000204600F01FF8022084F83D002068211DE6
:100D000000F018FA012084F8460084F83E0084F8C8
:100D10003F0084F8400084F8410084F8420084F8E1
:100D2000430084F8440084F8450084F83D00002026
:100D300010BD00007047000090F83D1001291CBF55
:100D400001207047022180F83D10006841F2FF72D7
:100D5000C168C4F20002904241F00101C1600DDCA3
:100D600040F2FF71C4F20001884215DCB0F1804FFF
:100D70002AD040F20041C4F2000123E040F2FF31EA
:100D8000C4F20101884213DC41F60001C4F2000103
:100D9000884219D0002113E040F60001C4F200019E
:100DA000884211D040F60041C4F200010AE000BFC1
:100DB00044F20001C4F20101884205D040F2004132
:100DC000C4F20101884206D1816801F007010629B9
:100DD00004BF00207047016841F00101016000205C
:100DE000704700007047000070B504460068C56891
:100DF0000669B10716D515F0020113D06FF0020194
:100E00000161012121778069800703D02046FFF727
:100E1000E9FF05E0204600F08FF8204600F08EF84C
:100E200000202077700719D515F0040016D020682F
:100E30006FF00401016102212177806910F4407F85
:100E400004D02046FFF7CEFF06E000BF204600F0AA
:100E500073F8204600F072F800202077300717D58D
:100E600015F0080014D020686FF00801016104211A
:100E70002177C069800703D02046FFF7B3FF05E064
:100E8000204600F059F8204600F058F8002020775E
:100E9000F00619D515F0100016D020686FF010017B
:100EA000016108212177C06910F4407F04D02046F9
:100EB000FFF798FF06E000BF204600F03DF820460F
:100EC00000F03CF800202077F00718BF15F0010073
:100ED00002D1300609D412E020686FF001010161EF
:100EE000204600F02DF8300609D515F0800006D018
:100EF00020686FF0800101612046FFF7E9FE70066F
:100F000009D515F0400006D020686FF0400101615E
:100F1000204600F01FF8B00658BF70BD15F0200045
:100F200008D021686FF0200220460A61BDE87040B9
:100F3000FFF7D0BE70BD0000704700007047000092
:100F4000006841F20001C4F20001884218BF7047F6
:100F5000FFF7F0BA70470000FEE7000080B501F02F
:100F6000F7F841F2450043F6B852C0F60000C0F66B
:100F70000002002100F028FB40F22021C2F2000113
:100F8000086080BD81B00020009043F63000C4F2BC
:100F90000200016841F080010160006800F08000FB
:100FA0000090009801B07047FEE70000FEE70000E7
:100FB000EFF30980BFF36F8F154B1A681EF0100F07
:100FC00008BF20ED108A20E9F04F10602DE90900DC
:100FD0004FF0500080F31188BFF34F8FBFF36F8F36
:100FE00001F0A6FD4FF0000080F31188BDE8090074
:100FF00019680868B0E8F04F1EF0100F08BFB0EC99
:10100000108A80F30988BFF36F8F704700BF00BF5D
:1010100000010020000000000000000000000000AF
:10102000074B19680868B0E8F04F80F30988BFF3F0
:101030006F8F4FF0000080F31188704700BF00BF32
:1010400000010020012000F05FF9FBE780B54EF2BF
:101050001000CEF20000006802F08CFC012808BFEE
:1010600080BDBDE8804001F0E3BF0000B0B592B0A4
:10107000002443F64000CDE90A44CDE90844059434
:10108000CDE90344CDE901440094C4F202000168B3
:10109000022541F080510160006800F0805000900E
:1010A000009847F200000094C4F20000016841F487
:1010B00080410160006800F48040009000980120A9
:1010C00006904FF4803007904FF480000D9006207A
:1010D0000E90A820CDE90F050420119006A80C95CC
:1010E000FFF73CFC10B172B6FEE700BF0F20CDE960
:1010F00001054FF4A05004904FF48050059001A8D2
:1011000005210394FFF710FB10B172B6FEE700BF94
:1011100012B0B0BD4EF68850CEF20000016841F426
:10112000700101607047000040F22420C2F200000C
:10113000FFF75ABEB0B540F6FF3E0568C4F2000E98
:1011400040F2004C7045C4F2010C27DCB0F1804F36
:1011500031D040F20043C4F2000398422BD040F655
:101160000003C4F20003984225D041F6FF73C4F295
:10117000000398422ADC70453CDCB0F1804F5FD020
:1011800040F20043C4F20003984259D040F60003F5
:10119000C4F20003984253D057E000BF40F600432A
:1011A000C4F20003984206D0604504D00023C4F284
:1011B00001039842D9D14B6825F0700243EA020539
:1011C00041F6FF73C4F200039842D4DD43F6FF7387
:1011D000C4F20103984221DC42F20003C4F200038E
:1011E00098422DD00023C4F20103984228D06045D4
:1011F00026D02AE040F60043C4F2000398421FD0F4
:1012000041F60003C4F20003984219D041F60043AE
:10121000C4F20003984213D017E000BF44F2000369
:10122000C4F2010398420BD044F60003C4F2010358
:10123000984205D044F20043C4F20103984204D11D
:10124000CB6825F4407243EA02050A688C684B6952
:10125000C46240F480648262644504BF096901632A
:10126000026825F0800142F0040219430260012265
:1012700042610160B0BD0000FEE7000040F20425BD
:10128000C2F2000500F00AF9696904460846012126
:1012900000F09EF804F57A7000F046F8F2E70000DE
:1012A00040F20425C2F2000541F6583600F0F6F887
:1012B000696904460846022100F08AF8A01900F086
:1012C00033F8F3E740F20424C2F20004606903211A
:1012D00001224FF0FF3300F0B1F86068032100F005
:1012E0003FF8207880F001002070EFE7FFF730F939
:1012F000FFF7BCFEFFF746FE00F0D8F8FFF72EFE22
:1013000000F0E8F8FEE70000EFF3058100291CBFBC
:101310006FF005007047002804BF0020704780B5BB
:1013200001F0CEF9002080BD10B582B0EFF3058149
:1013300021B16FF0050002B010BD00BF044602F0FD
:1013400029FB0146019084426FF0030005D0611A29
:1013500003D401A801F0F4F9002002B010BD000090
:1013600070B56FF00305A0B1064600200C46B0EB47
:10137000116F0ED1EFF3058070B1304601F09CFC87
:1013800005463046214601F057FC002808BF6FF0A3
:101390000205284670BD00BF30462146BDE87040BA
:1013A00001F024BCEFF3058181B9014640B1D1E9D8
:1013B000020138B1202928BF01F056BC06E000BF69
:1013C00001F044BC002908BF01F040BC0020704778
:1013D00010B582B00C466FF00301D8B10022B2EB19
:1013E000146F17D1EFF30581C1B10021019101AA5A
:1013F000214601F0B9FCB8B10198D8B14EF60450BD
:10140000CEF200004FF080510160BFF34F8F2146B4
:10141000BFF36F8F084602B010BD00BF214602B077
:10142000BDE8104001F056BC6FF00201084602B062
:1014300010BD00BF2146084602B010BD70B582B095
:101440000D46014600286FF003001AD01C46002309
:10145000B3EB156F15D1EFF3058018B16FF00500F0
:1014600002B070BD02F00106012020EA52020846D7
:1014700029463346009401F081FC00EA05011EB9BB
:1014800021B102B070BD00BFA942FAD06FF00100D7
:10149000002C08BF6FF0020002B070BDEFF30580B2
:1014A000002808BF02F076BA02F07ABAEFF305809E
:1014B00000281CBF6FF00500704740F21C20C2F2EC
:1014C00000000168002911BF4FF0FF3001210160C9
:1014D0000020704710B5EFF3058000281CBF6FF0A7
:1014E000050010BD40F21C20C2F200000168012975
:1014F0001CBF4FF0FF3010BD4EF61F51CEF2000161
:1015000000240C700221016001F092FA204610BD07
:1015100070B582B00E4686424FF00005EFF30581AC
:1015200016D8A8B1A1B91446B2B1D4E902216AB162
:101530004F2945D9A368012832D103250120002174
:101540000022009501F054FE0DE000BF21B10025FE
:10155000284602B070BD00BF01280BD10120002138
:10156000032201F001FE0546002E18BF002D07D111
:10157000E5B925E0314601F073FD0546B5B91FE038
:10158000284600210022002301F0A2FE01280DD0F0
:10159000284601F017F80025284602B070BD00BFAC
:1015A00031461A4601F07EFD05464DB1002C14BFB0
:1015B00021680021284600F0ADFF284602B070BD2A
:1015C0000025284602B070BD2DE9F04184B08E465A
:1015D00000240394EFF3058150B149B94FF00004A2
:1015E00052B19369002B08BF1823382B16D9002459
:1015F000204604B0BDE8F08180251823002103AF08
:101600000093AAB27346019702F048F903990128A2
:1016100008BF0C46204604B0BDE8F0811179C90727
:1016200024D15769D2E902864FEA970C1168002F3E
:10163000654608BF8025B8F1000F13D05C2E15D386
:1016400012690024002A18BF002FD1D0CDE9003242
:1016500062467346CDF8088002F050F904B0BDE848
:10166000F08100BF16B91269002AC8D000242046B4
:1016700004B0BDE8F08100002DE9F041044600F01F
:1016800059FE40F20016C2F20006F06840F25C35E6
:101690000130F0603068C2F2000558B130690028AE
:1016A00040F007813068E16AC06A884298BF3460C0
:1016B000FFE000BF3460F068012840F0FA8028465F
:1016C00000F0DEFD05F1140000F0DAFD05F1280060
:1016D00000F0D6FD05F13C0000F0D2FD05F1500010
:1016E00000F0CEFD05F1640000F0CAFD05F17800C0
:1016F00000F0C6FD05F18C0000F0C2FD05F1A00070
:1017000000F0BEFD05F1B40000F0BAFD05F1C8001F
:1017100000F0B6FD05F1DC0000F0B2FD05F1F000CF
:1017200000F0AEFD05F5827000F0AAFD05F58C70A5
:1017300000F0A6FD05F5967000F0A2FD05F5A0707D
:1017400000F09EFD05F5AA7000F09AFD05F5B47055
:1017500000F096FD05F5BE7000F092FD05F5C8702D
:1017600000F08EFD05F5D27000F08AFD05F5DC7005
:1017700000F086FD05F5E67000F082FD05F5F070DD
:1017800000F07EFD05F5FA7000F07AFD05F50270B7
:1017900000F076FD05F5077000F072FD05F50C70A0
:1017A00000F06EFD05F5117000F06AFD05F516708C
:1017B00000F066FD05F51B7000F062FD05F5207078
:1017C00000F05EFD05F5257000F05AFD05F52A7064
:1017D00000F056FD05F52F7000F052FD05F5347050
:1017E00000F04EFD05F5397000F04AFD05F53E703C
:1017F00000F046FD05F5437000F042FD05F5487028
:1018000000F03EFD05F54D7000F03AFD05F5527013
:1018100000F036FD05F5577000F032FD05F55C70FF
:1018200000F02EFD05F5617000F02AFD05F56670EB
:1018300000F026FD05F56B7000F022FD05F57070D7
:1018400000F01EFD05F5757000F01AFD05F57A70C3
:1018500000F016FD05F57F7000F012FD05F58260C1
:1018600000F00EFD05F2244000F00AFD05F587604A
:1018700000F006FD05F24C4000F002FD40F2DC18DD
:10188000C2F20008404600F0FBFC08F1140738469D
:1018900000F0F6FC06F1640000F0F2FC06F13C00FA
:1018A00000F0EEFC06F1500000F0EAFCC6F81C80E7
:1018B00037627068716A421CE06A726088426264D2
:1018C00088BF706200EB800005EB8000211D00F0F6
:1018D00019FD00F053FD306988B13068E16AC06AD3
:1018E000884228BFBDE8F0814EF60450CEF20000D9
:1018F0004FF080510160BFF34F8FBFF36F8FBDE892
:10190000F081000040F2001540F25C364EF60458BB
:10191000C2F20005C2F20006CEF200084FF0805776
:1019200003E000BF204600F041FDA868D0B100F000
:1019300001FDA86CC468201D00F040FCE868013877
:10194000E860A8680138A86000F018FD94F8590014
:101950000228EAD00128E5D070B9206B00F026FDFE
:10196000E0E700BF30680228DFD3C8F80070BFF39B
:101970004F8FBFF36F8FD8E74FF0500080F311887F
:10198000BFF36F8FBFF34F8FFEE700002DE9F047E5
:101990000A9C8246206B16460F46DDE908599100E5
:1019A000A5229846FEF71DFD206B002F00EB860058
:1019B000A0F1040020F0070656D0387884F83400EF
:1019C000387800284BD0787884F83500787800286B
:1019D00045D0B87884F83600B87800283FD0F87839
:1019E00084F83700F878D0B3387984F8380038793B
:1019F000A8B3787984F83900787980B3B87984F815
:101A00003A00B87958B3F87984F83B00F87930B3E4
:101A1000387A84F83C00387A08B3787A84F83D0044
:101A2000787AE0B1B87A84F83E00B87AB8B1F87A3A
:101A300084F83F00F87A90B1387B84F84000387B16
:101A400068B1787B84F84100787B40B1B87B84F83A
:101A50004200B87B00281CBFF87B84F843000020BC
:101A600084F8430003E000BF002084F8340000271E
:101A7000201D372D28BF3725E562C4E9135700F034
:101A80000BFC04F1180000F007FCC5F13800A06160
:101A900030465146424624616462676584F8587056
:101AA00000F042FBB9F1000F206018BFC9F80040F8
:101AB000BDE8F08708480068006880F308884FF0A8
:101AC000000080F3148862B661B6BFF34F8FBFF396
:101AD0006F8F00DF00BF000008ED00E081B0002044
:101AE000009040F29800C2F2000000684FF05001F0
:101AF00081F31188BFF36F8FBFF34F8F013007D091
:101B0000FEE700BF009830B9009820B9009810B9DE
:101B100000980028F6D001B07047000088B040F26D
:101B2000781AC2F2000A0DF11009EB46DAF8080043
:101B300005681DB1C068046801E000BF002400F022
:101B4000EFFF01F027FFDAF810100646884220D395
:101B5000002DCAF8106051D0A6424FD302F02CF8E5
:101B6000DAF80800C068C7683D1D284600F026FB6B
:101B700097F82800410745D400F0FE0087F82800B8
:101B800084E000BF6860DAF8080039462D6100F093
:101B900087FBDAF80800016831B3C068C5680468DB
:101BA0002F1D384600F00AFB296A2846884795F819
:101BB00028004007EDD5A8692044A042E2D8DAF811
:101BC0000000002800F04881002004A931C101F084
:101BD000D1FEDAF8000049460022002301F078FB2C
:101BE0000028D6D138E100BFDAF80C10CAF810602E
:101BF000CAE9021001F0E0FF1AE100BF65B100225E
:101C000010E000BFB8693F610119B14279601FD986
:101C10000AF1080021E000BFDAF80C000068B0FA11
:101C200080F04209DAF80000A11B00F01FFD01F06E
:101C3000C3FF002840F0FC804EF60450CEF20000B6
:101C40004FF080510160BFF34F8FBFF36F8FEFE014
:101C5000311B814206D20AF10C000068294600F0CF
:101C60001FFB13E0DAF80000002800F013810020C9
:101C700004A991C101F07EFEDAF800004946002275
:101C8000002301F025FB002800F00481396A384662
:101C90008847CDE00098B0F1FF3F07DCDDE9012087
:101CA000039990470098002800F1C280029E706955
:101CB00010B1301D00F082FA01F06CFEDAF810105D
:101CC000074688420DD30098CAF8107009283FD9FA
:101CD000AEE000BF6860DAF8080021462D6100F030
:101CE000DFFADAF80800016841B3C068C568D0F8C7
:101CF00000802C1D204600F061FA296A284688479A
:101D000095F828004007ECD5A86940444045E1D843
:101D1000DAF80000002800F095800020CDE90408E2
:101D2000069501F027FEDAF800004946002200235C
:101D300001F0CEFA0028D4D184E000BFDAF80C100C
:101D4000CAE902100098CAF81070092800F27080E1
:101D5000DFE800F00606064448620606444800BF75
:101D600096F82800019A40F00101B06986F8281021
:101D70008318314641F8043FBB42366106D9974289
:101D80000AF1080007D293420AD204E0BA1A82424A
:101D900006D20AF10C00006800F082FA48E000BFA9
:101DA000316A3046884796F82800400740D5DAF86F
:101DB000000000285AD00198B16906960844002115
:101DC000CDE9041001F0D6FDDAF800004946002202
:101DD000002301F07DFA58BB48E000BF96F82800C8
:101DE00022E000BF96F8280040F00101019886F833
:101DF00028100028B06143D0384431460AF10C0263
:101E000041F8040F3661B84288BF0AF10802106831
:101E100000F046FA0CE000BF96F82800810703D4D2
:101E2000304600F0C3FA03E000F0FE0086F8280018
:101E3000DAF800005946002201F00CFC00287FF47B
:101E400029AF73E64FF0500080F31188BFF36F8F16
:101E5000BFF34F8FFEE700BF4FF0500080F31188B3
:101E6000BFF36F8FBFF34F8FFEE700BF4FF05000FF
:101E700080F31188BFF36F8FBFF34F8FFEE700BF72
:101E80004FF0500080F31188BFF36F8FBFF34F8F77
:101E9000FEE700BF4FF0500080F31188BFF36F8F53
:101EA000BFF34F8FFEE70000F0B581B0044600F0AD
:101EB00041FA94F94560012E0FDB04F1240500BFBF
:101EC000286850B1284601F03DFE002818BF00F0F8
:101ED000A7FCF0B2013E0128F2D8FF2684F8456045
:101EE00000F04CFA00F026FA94F94470012F0EDB52
:101EF00004F11005286850B1284601F023FE00289F
:101F000018BF00F08DFCF8B2013F0128F2D884F828
:101F1000446001B0BDE8F04000F030BA70B504464E
:101F200000F0FEFD40F2B41CC2F2000CDCF804002C
:101F300050B19CF80000002818BF4FF000404FF04F
:101F4000000574BB8DE000BF40F2BC70C2F200001F
:101F5000C21D22F0070210F00701A0EB020318BF18
:101F6000104600224FF47055CCE90602002918BF34
:101F700003F57055411921F00701A1F10803CCF8D0
:101F8000043041E90222191AC0E9003101208CF81D
:101F900000004FF00040CCE90211002C4FF000058A
:101FA0005FD020405DD124F0070000F110026007EF
:101FB00008BF04F10802002A4FF0000551D0DCF8F8
:101FC000080082424DD8604650F818EFDEF8045001
:101FD00095422CD2DEF80010C1B174464D6895428E
:101FE00018D20B68B3B15D68954217D21868A8B1D2
:101FF0004568954216D20468A4B16568954215D229
:102000002168A6460029E9D111E000BF0CF11800B3
:102010000DE000BF8E46204609E000BF9E46084600
:1020200005E000BF8646184601E000BFA646DCF882
:1020300004108E4514D00168DEF80040AB1A112B55
:1020400004604DD30EEB0205680719D04FF0500025
:1020500080F31188BFF36F8FBFF34F8FFEE700BF90
:10206000002501F0A9FD68075BD04FF0500080F318
:102070001188BFF36F8FBFF34F8F00BFFEE700BF24
:102080000CF118006B60CEF8042000BF0368AB426F
:102090000AD21868A8420BD20368AB4204D218686F
:1020A0001A46A842F2D304E00246184601E000BFF7
:1020B0001A4653686C68D618AE4202D11C441546C5
:1020C00054602B19834207D1DCF80430984203D0C6
:1020D000D0E9000323446B60AA42286018BF156052
:1020E00001F10805DEF80400DCE90212091A914248
:1020F000CCF8081038BFCCF80C109CF80010002960
:1021000018BF40F00040CEF80400DCF810000021B9
:102110000130CEF80010CCF8100001F04DFD68073A
:10212000A3D1284670BD0000034641F6DD20C0F66D
:1021300000004FF0807C21F0010103E903106FF0F3
:10214000020043F8240CA3F1440043F8202C70470C
:10215000B0B540F20804C2F2000441F2C52004F117
:102160002002C0F600000021FFF72EFA40F20425FD
:10217000C2F20005686041F27D2004F14402C0F61D
:1021800000000021FFF720FAA86041F2A12040F2F0
:102190007402C0F60000C2F200020021FFF714FA38
:1021A000E860012000212246FFF7B2F9286104F11E
:1021B0001000FFF7F7F86861B0BD0000D0E9013208
:1021C00001699A60D1F804C082688445536008BFF1
:1021D0004A60002202610868013808600868704798
:1021E00040F20011C2F20001086880690A68D26AF0
:1021F0000968C2F138028A617047000044F2C05396
:10220000C2F20003036044F2C030C2F20000086072
:10221000802010607047000044F61C23C2F20003C7
:10222000036044F21C60C2F2000008604FF480704A
:1022300010607047B0B568B10D46B1F1807F13D31F
:102240004FF0500080F31188BFF36F8FBFF34F8FB3
:10225000FEE700BF4FF0500080F31188BFF36F8F8F
:10226000BFF34F8FFEE700BF044600F063F820681D
:10227000A8432060BDE8B04000F080B800F02ABD5F
:102280004FF0FF31024642F8081F00214260C0E9CA
:1022900003220160704700000021016170470000C7
:1022A00010B5D1F800E01EF1010213D000F10804CE
:1022B00062681368734511D853681C68744511D857
:1022C0005A68146874450FD854682368A446734547
:1022D000EED90BE00269D2F804C007E0944622462A
:1022E00004E000BF9C4601E094461A46C1F804C0D1
:1022F000CCF808108A605160086101680131016002
:1023000010BD0000D0F800C0436808619A684B60B7
:102310008A609A68996051600CF101010160704710
:10232000DFF80C00016841F47001016070470000A3
:1023300088ED00E04FF0500080F31188BFF36F8FFD
:10234000BFF34F8F40F29800C2F2000001684A1CB0
:10235000026009B1704700BF4EF60450CEF2000093
:102360000068000608BF70474FF0500080F31188E6
:10237000BFF36F8FBFF34F8FFEE7000040F298006E
:10238000C2F20000016839B10139016018BF70471D
:10239000002080F3118870474FF0500080F31188BF
:1023A000BFF36F8FBFF34F8FFEE7000070B50028BB
:1023B00008BF70BD40F2B415C2F20005044628788B
:1023C00054F8041C002818BF4FF0004008420DD0FC
:1023D000A4F1080632689AB14FF0500080F31188DA
:1023E000BFF36F8FBFF34F8FFEE700BF4FF050007A
:1023F00080F31188BFF36F8FBFF34F8FFEE700BFED
:1024000021EA000044F8040C00F08AFB54F8041C94
:10241000A8680844A86005F1180000BF0368B3422B
:102420000AD21868B04225D20368B34204D21868B1
:102430001A46B042F2D301E0024618465368D41857
:10244000B44202D11944164651607318834206D132
:102450006B68984203D0D0E9000319447160B2421E
:10246000306018BF1660686901306861BDE870406F
:1024700001F0A2BB1A465368D418B442E5D1E1E793
:102480004EF21000CEF2000000210160816040F2A7
:102490007001C2F20001096844F6D352C1F262022F
:1024A000A1FB02124FF0FF3101EB921141600721B5
:1024B0000160704740F2D410EFF305811029C2F299
:1024C000000011D34EF2F032CEF20002895C0278A5
:1024D000914209D24FF0500080F31188BFF36F8F03
:1024E000BFF34F8FFEE700BF4EF60C51CEF2000156
:1024F0000968406801F4E061814298BF70474FF07D
:10250000500080F31188BFF36F8FBFF34F8F00BF70
:10251000FEE7000044F6782CC2F2000CDCF8002044
:1025200022B3634653F8082F42B3634653F8102F83
:1025300052B3634653F8182F62B3634653F8202F03
:1025400072B3634653F8282F82B3634653F8302F93
:1025500092B3634653F8382F002A18BF70470722FA
:1025600019600CEBC2014860704700BF002263464F
:1025700019600CEBC2014860704700BF012219606E
:102580000CEBC20148607047022219600CEBC201DB
:1025900048607047032219600CEBC2014860704725
:1025A000042219600CEBC2014860704705221960D3
:1025B0000CEBC20148607047062219600CEBC201A7
:1025C0004860704780B344F67821C2F200010B46A0
:1025D00053F8042F4FF0000C82422FD00B4653F8D3
:1025E0000C2F82422CD00B4653F8142F824229D054
:1025F0000B4653F81C2F824226D00B4653F8242F4B
:10260000824223D00B4653F82C2F824220D00B4617
:1026100053F8342F82421DD00B4653F83C2F824290
:102620001DD1072217E000BF4FF0500080F3118842
:10263000BFF36F8FBFF34F8FFEE700BF00220AE0AA
:10264000012208E0022206E0032204E0042202E064
:10265000052200E0062241F832C0C3F800C090F81D
:102660004610002918BF7047FFF7A0BE70B5154689
:102670000E460446FFF75EFE94F84400FF2804BFB0
:10268000002084F8440094F84500FF2804BF00208F
:1026900084F84500FFF772FEA06B28B12046BDE824
:1026A0007040FFF701BC00BF04F1240031462A4608
:1026B00000F0F8F82046BDE87040FFF7F5BB0000D9
:1026C00070B588B340F20015C2F20005044668698F
:1026D00050B14FF0500080F31188BFF36F8FBFF3FC
:1026E0004F8F00BFFEE700BF686901306861AE69C7
:1026F00028680430FFF762FD2868A419446005D3F8
:10270000286A29680431FFF7CBFD08E0E8692968E9
:102710000431FFF7C5FDE86A844238BFEC6201F07E
:102720004BFA002818BF70BD4EF60450CEF20000E0
:102730004FF080510160BFF34F8FBFF36F8F70BDBB
:1027400070B588B1D1B140F20014C2F200046269E0
:10275000F2B14FF0500080F31188BFF36F8FBFF3D9
:102760004F8F00BFFEE700BF4FF0500080F311888D
:10277000BFF36F8FBFF34F8FFEE700BF4FF05000E6
:1027800080F31188BFF36F8FBFF34F8FFEE700BF59
:10279000626901326261A26903689A42194403D2F4
:1027A000994203D316E000BF994201D3914211D957
:1027B0000160A56920688E1A0430FFF7FFFC2068CD
:1027C000AD19456008D3206A21680431FFF768FD20
:1027D0000BE000BF016008E0E06921680431FFF709
:1027E0005FFDE06A854238BFE56201F0E5F9002847
:1027F00018BF70BD4EF60450CEF200004FF080516D
:102800000160BFF34F8FBFF36F8F70BD40F20011B7
:10281000C2F200018A6B0260896941607047000062
:1028200040F20010C2F20000012101637047000075
:1028300070B5D8B140F20014C2F200040D46216810
:102840001831FFF72DFDA66920680430FFF7B6FCAC
:10285000681C15D02068AD19456019D3206A21681D
:102860000431BDE87040FFF71BBD00BF4FF05000C2
:1028700080F31188BFF36F8FBFF34F8FFEE700BF68
:1028800054F8500B011D2046BDE87040FFF73ABDDB
:10289000E06921680431FFF703FDE06A854238BF33
:1028A000E56270BDF0B581B0C0B140F20014C2F273
:1028B00000040D46216816461831FFF723FDA7696D
:1028C00020680430FFF77AFC96B154F8500B011DD4
:1028D000204601B0BDE8F040FFF714BD4FF05000B6
:1028E00080F31188BFF36F8FBFF34F8FFEE700BFF8
:1028F0002068ED19456007D3206A2168043101B0D2
:10290000BDE8F040FFF7CCBCE06921680431FFF777
:10291000C7FCE06A854238BFE56201B0F0BD000047
:1029200070B508B340F20014C2F2000415466269A3
:1029300022B3226841F00041916121681831FFF70C
:10294000E1FCA66920680430FFF738FC681C1FD042
:102950002068AD19456023D3206A21680431BDE8A1
:102960007040FFF79DBC00BF4FF0500080F311880E
:10297000BFF36F8FBFF34F8FFEE700BF4FF05000E4
:1029800080F31188BFF36F8FBFF34F8FFEE700BF57
:1029900054F8500B011D2046BDE87040FFF7B2BC53
:1029A000E06921680431FFF77BFCE06A854238BFAB
:1029B000E56270BD70B540F20015C2F200056A69AB
:1029C00012B3C66841F0004101603EB3FFF7F6FB69
:1029D000341D2046FFF7F2FBF06A696A884240F234
:1029E0005C3188BF686200EB8000C2F2000101EB3D
:1029F00080002146FFF786FCF06A2968C96A884290
:102A000084BF0120286370BD4FF0500080F311880F
:102A1000BFF36F8FBFF34F8FFEE700BF4FF0500043
:102A200080F31188BFF36F8FBFF34F8FFEE7000075
:102A300010B588B00020CDE9050006A805A904AAB4
:102A4000FFF7DCFB059800283ED0069C002C45D003
:102A50005C21049A079107995C2949D10799206361
:102A6000022084F8590007A80021CDE9001041F6A2
:102A70000510C0F6000028A100230294FEF786FF8F
:102A80002046FEF7F9FD079840F20014C2F2000458
:102A9000A062B0B101F008F9411C33D0012810D177
:102AA0004FF0500080F31188BFF36F8FBFF34F8F4B
:102AB0004FF0FF30E062012020610020A06100F0B3
:102AC000F5F908B010BD00BF4FF0500080F3118839
:102AD000BFF36F8FBFF34F8FFEE700BF4FF0500083
:102AE00080F31188BFF36F8FBFF34F8FFEE700BFF6
:102AF0004FF0500080F31188BFF36F8FBFF34F8FFB
:102B0000FEE700BF4FF0500080F31188BFF36F8FD6
:102B1000BFF34F8FFEE700BF49444C450000000063
:102B200040F20010C2F2000041690131416170477A
:102B300080B540F2001EC2F2000EDEF8141019B18A
:102B40000121CEF8301080BD0021CEF83010DEF823
:102B5000241040F25C3C01EB8103C2F2000C5CF8F3
:102B600023208AB101EB81020CEB820353F8042F7E
:102B70005268181D82421A6020D0D068CEF800003A
:102B8000CEF8241080BD00BF0CEB8302A2F1280315
:102B9000E1B15A6922BB012918D01A6812BB022977
:102BA00014D053F8142CFAB903290FD053F8282C59
:102BB0000439002AA3F15003EAD0D3E752681A601F
:102BC000D068CEF80000CEF8241080BD4FF0500041
:102BD00080F31188BFF36F8FBFF34F8FFEE700BF05
:102BE0000139BFE70239BDE70339BBE770B568B10A
:102BF0000D46B1F1807F13D34FF0500080F3118860
:102C0000BFF36F8FBFF34F8FFEE700BF4FF0500051
:102C100080F31188BFF36F8FBFF34F8FFEE700BFC4
:102C20000446FFF787FB266826EA05002060FFF7C9
:102C3000A5FB304670BD00000A46014642F2352031
:102C4000C0F60000002301F089B80000B0B52020D4
:102C5000FFF764F9044628B10025201D2560FFF721
:102C60000FFB25772046B0BD10B582B080B1044679
:102C7000202001900198202814D100202060201DE0
:102C8000FFF7FEFA01212046217702B010BD00BFF8
:102C90004FF0500080F31188BFF36F8FBFF34F8F59
:102CA000FEE700BF4FF0500080F31188BFF36F8F35
:102CB000BFF34F8FFEE70000EFF311824FF050019A
:102CC00081F31188BFF36F8FBFF34F8F006882F3DA
:102CD000118870472DE9F04170B10D46B1F1807F48
:102CE00014D34FF0500080F31188BFF36F8FBFF300
:102CF0004F8F00BFFEE700BF4FF0500080F31188F8
:102D0000BFF36F8FBFF34F8FFEE700BF044600F1A4
:102D10000C08FFF705FF20682769284347454FF057
:102D2000000520600AD118E036B141F00071D201EF
:102D300048BF1D43FFF73EFE47450DD03846D7E953
:102D40000027216822F07F43560101EA0306EBD5F4
:102D50009E42EAD0F0E700BF2068A843206000F060
:102D60002BFF2068BDE8F08113460A46014642F277
:102D70007D20C0F6000000F0F1BF00002DE9F04317
:102D800081B068B10D46B1F1807F13D34FF0500090
:102D900080F31188BFF36F8FBFF34F8FFEE700BF43
:102DA0004FF0500080F31188BFF36F8FBFF34F8F48
:102DB000FEE700BFA5B1DDF820801F461646044699
:102DC00000F0D8FDB8F1000F14D098B94FF05000C2
:102DD00080F31188BFF36F8FBFF34F8FFEE700BF03
:102DE0004FF0500080F31188BFF36F8FBFF34F8F08
:102DF000FEE700BFFFF794FED4F8009009EA050053
:102E0000B0FA80F1401B18BF0120002F08BF48090D
:102E1000002841D0B8F1000F42D03046002E18BF34
:102E20000120010601F18061002F08BF0106201D6D
:102E300029434246FFF774FD00F0BEFE50B94EF63E
:102E40000450CEF200004FF080510160BFF34F8F6D
:102E5000BFF36F8FFFF7C4F98046800116D4FFF7E8
:102E600069FAD4F8008018EA0500A0EB050118BF44
:102E70000120002FB1FA81F118BF4809002E1EBFB2
:102E8000002828EA05002060FFF778FA28F07F493B
:102E9000484601B0BDE8F08316B129EA050020607C
:102EA00000F08AFE484601B0BDE8F083B0B584B0BA
:102EB0004EF2004CCEF2000C4CF27021C4F20F1115
:102EC000DCF800294B1C9A420AD14FF0500080F3E5
:102ED0001188BFF36F8FBFF34F8F00BFFEE700BFB6
:102EE000DCF800298A4209D14FF0500080F31188A4
:102EF000BFF36F8FBFF34F8FFEE700BF9CF800104A
:102F00000291FF218CF800109CF800108DF807103A
:102F10009DF8071001F0500240F2D411C2F20001F6
:102F20000A7007224A609DF90720B2F1FF3F69DC71
:102F3000032200BFD31C4B609DF8070040008DF8B2
:102F400007009DF90700B0F1FF3F23DC931C4B60A5
:102F50009DF8070040008DF807009DF90700B0F1CB
:102F6000FF3F17DC531C4B609DF8070040008DF8B5
:102F700007009DF90700B0F1FF3F0BDC4A609DF8A8
:102F80000700043A40008DF807009DF9070000286B
:102F9000D0D4131D032B35D14FF4407048600298F4
:102FA0008CF80000DCF8200940F47000CCF820090F
:102FB000DCF8200940F07040CCF82009FFF760FAF7
:102FC00040F29804C2F2000400252560FFF7A8F93A
:102FD0004EF63470CEF20000016841F040410160CD
:102FE000FEF768FDFFF7A4FD039520684FF0500140
:102FF00081F31188BFF36F8FBFF34F8F013011D072
:10300000FEE700BF4FF0500080F31188BFF36F8FD1
:10301000BFF34F8FFEE700BF039830B9039820B984
:10302000039810B903980028F6D0002004B0B0BD72
:1030300080B54FF0500080F31188BFF36F8FBFF35E
:103040004F8F00F0B7FC30B14EF60450CEF20000C6
:103050004FF080510160002080F3118880BD000096
:1030600010B568B10C46814214D94FF0500080F37E
:103070001188BFF36F8FBFF34F8F00BFFEE700BF14
:103080004FF0500080F31188BFF36F8FBFF34F8F65
:10309000FEE700BF0021022200F066F8002818BFFA
:1030A000846310BD70B582B060B10D46814213D902
:1030B0004FF0500080F31188BFF36F8FBFF34F8F35
:1030C000FEE700BF4FF0500080F31188BFF36F8F11
:1030D000BFF34F8FFEE700BF14468AB35021019122
:1030E0000199502936D101990121002684F8461012
:1030F0002460C4E90F06FFF71DF92068D4E90F1218
:10310000A66302FB0103013901FB0201C4E90103CB
:10311000FF20E16084F8440084F8450004F11000C9
:10312000FFF7AEF804F12400FFF7AAF8FFF726F93D
:10313000022084F84C002046A56302B070BD00BF99
:103140004FF0500080F31188BFF36F8FBFF34F8FA4
:10315000FEE700BF4FF0500080F31188BFF36F8F80
:10316000BFF34F8FFEE700002DE9F041B0B30646F4
:103170004843503014460F46FEF7D0FE054650B384
:103180004FF00008284685F84680002F18BF5030C1
:103190002860C5E90F67FFF7CDF82868D5E90F1259
:1031A000C5F8388002FB0103013901FB0201C5E9C2
:1031B0000103FF20E96085F8440085F8450005F12A
:1031C0001000FFF75DF805F12400FFF759F8FFF74D
:1031D000D5F885F84C402846BDE8F0814FF0500006
:1031E00080F31188BFF36F8FBFF34F8FFEE70000AE
:1031F00070B582B070B11C46B3B1F9B9F2B14FF0FD
:10320000500080F31188BFF36F8FBFF34F8F00BF63
:10321000FEE700BF4FF0500080F31188BFF36F8FBF
:10322000BFF34F8FFEE700BF4FF0500080F31188CF
:10323000BFF36F8FBFF34F8FFEE700BF51B14AB9A5
:103240004FF0500080F31188BFF36F8FBFF34F8FA3
:10325000FEE700BF50230193019B502B2ED1019B11
:10326000069E012384F84630002908BF22462260CA
:10327000C4E90F01FFF75EF82068D4E90F120025BA
:1032800002FB0103013901FB0201A563C4E901034B
:10329000FF20E16084F8440084F8450004F1100048
:1032A000FEF7EEFF04F12400FEF7EAFFFFF766F8F1
:1032B000204684F84C6002B070BD00BF4FF0500053
:1032C00080F31188BFF36F8FBFF34F8FFEE70000CD
:1032D0002DE9F04F83B00292C0B11D4617460E464D
:1032E0000446E9B1022D03D1E06B012840F088804B
:1032F00000F040FB10BB0FB34FF0500080F311887B
:10330000BFF36F8FBFF34F8FFEE700BF4FF050004A
:1033100080F31188BFF36F8FBFF34F8FFEE700BFBD
:10332000206C0028DED04FF0500080F31188BFF3EE
:103330006F8FBFF34F8F00BFFEE700BFFEF7FAFFAE
:10334000A06B022D66D0E16B884263D304F11008B4
:1033500001206F460DF108090DE000BF2046FEF781
:10336000A3FD00F029FCFEF7E5FFA06BE16B8842AE
:103370004FF000004ED30299002973D0C00702D04D
:103380003846FFF743FAFEF7F9FFFFF7C9FBFEF7F0
:10339000D1FF94F84400FF2804BF002084F84400C3
:1033A00094F84500FF2804BF002084F84500FEF78C
:1033B000E5FF3846494600F01FFA002858D1FEF7CD
:1033C000B9FFD4F838A0D4F83CB0FEF7D7FFDA45FF
:1033D000C4D102994046FFF72BFA2046FEF764FD60
:1033E00000F0EAFB0028BED14EF60450CEF20000F9
:1033F0004FF080510160BFF34F8FBFF36F8FB2E783
:103400004FF0500080F31188BFF36F8FBFF34F8FE1
:10341000FEE700BFA76B226CD2B19DB3E0683146D6
:10342000FCF79AFFE168206C2268091A9142E1607A
:1034300003D2A16840420844E060A81EB0FA80F0C0
:1034400040093946002F18BF012108403F1A26E0E5
:103450002068002520BBA06800F02EFBA560054673
:103460001EE000BFFEF78AFF002003B0BDE8F08F2A
:103470002046FEF719FD00F09FFB002003B0BDE8D9
:10348000F08F00BF60683146FCF766FF216CD4E91D
:10349000010208449042606001D32068606000250A
:1034A000781CA06354F8240FA0B1204600F04AFB1A
:1034B00050B14EF60450CEF200004FF08051016042
:1034C000BFF34F8FBFF36F8FFEF758FF012003B09C
:1034D000BDE8F08F002DF7D04EF60450CEF200007C
:1034E0004FF080510160BFF34F8FBFF36F8FFEF736
:1034F00045FF012003B0BDE8F08F00002DE9F04743
:1035000000B31E46144605460F4629B3022E02D1CB
:10351000E86B012852D1FEF7CDFFEFF311884FF091
:10352000500080F31188BFF36F8FBFF34F8FA86BEC
:10353000022E1FD0E96B88421CD3002088F311882B
:10354000BDE8F0874FF0500080F31188BFF36F8F14
:10355000BFF34F8FFEE700BF286C0028D6D04FF096
:10356000500080F31188BFF36F8FBFF34F8F00BF00
:10357000FEE700BF95F84590A86BD5F838A02A6CF7
:1035800032B36EB3E8683946FCF7E6FEE968286CAA
:103590002A68091A9142E96003D2A96840420844A6
:1035A000E860B01EB0FA80F040095146BAF1000F51
:1035B00018BF01210840AAEB000A1EE04FF050009E
:1035C00080F31188BFF36F8FBFF34F8FFEE700BF0B
:1035D000286890B9A86800F06FFA0020A8600CE095
:1035E00068683946FCF7B8FE296CD5E90102084441
:1035F0009042686001D3286868600AF10100B9F15F
:10360000FF0FA86310D155F8240FB8B1284600F079
:1036100099FA0146002C4FF0010018BF002913D180
:1036200088F31188BDE8F08709F1010085F84500AD
:10363000012088F31188BDE8F08700BF012088F3DE
:103640001188BDE8F08700BF0120206088F3118851
:10365000BDE8F0872DE9F04F83B0029290B1164695
:103660000D460446002947D000F084F9A0B99EB168
:103670004FF0500080F31188BFF36F8FBFF34F8F6F
:10368000FEE700BF4FF0500080F31188BFF36F8F4B
:10369000BFF34F8FFEE700BFFEF74CFED4F838A013
:1036A000BAF1000F36D0226C52B1D4E90230811841
:1036B000E160994224BF2168E1602846FCF74CFE96
:1036C000AAF10100A06354F8100F70B1204600F079
:1036D00039FA50B14EF60450CEF200004FF080514E
:1036E0000160BFF34F8FBFF36F8F0124FEF746FEDB
:1036F000204603B0BDE8F08F206C0028B4D04FF016
:10370000500080F31188BFF36F8FBFF34F8F00BF5E
:10371000FEE700BF04F1240801206F464FF00009C6
:103720000DF1080B2EE000BFFEF728FEFFF7F8F9B9
:10373000FEF700FE94F84400FF2808BF84F8449088
:1037400094F84500FF2808BF84F84590FEF716FE60
:103750003846594600F050F8E0B12046FEF7A4FB89
:1037600000F02AFAFEF7E6FDA66BFEF707FE002E34
:103770003CD0FEF7DFFDD4F838A00020BAF1000FEE
:103780007FF491AF029949B3C007CDD03846FFF717
:103790003DF8C9E7FEF7CEFDA66BFEF7EFFD2EB1B3
:1037A0002046FEF781FB00F007FAE2E70299404667
:1037B000FFF73EF82046FEF777FB00F0FDF9002802
:1037C000D7D14EF60450CEF200004FF08051016088
:1037D000BFF34F8FBFF36F8FCBE700BF0024FEF71F
:1037E000CDFD204603B0BDE8F08F00BF0024204689
:1037F00003B0BDE8F08F0000B0B5D8B10D4619B3E5
:103800000446FEF797FD40F2001CC2F2000CDCF803
:10381000182029684B1C21D0D4E9000EDCF8383080
:10382000834221D072451FD30124FEF7A7FD204615
:10383000B0BD00BF4FF0500080F31188BFF36F8F11
:10384000BFF34F8FFEE700BF4FF0500080F31188A9
:10385000BFF36F8FBFF34F8FFEE700BF0024FEF76B
:103860008DFD2046B0BD00BFA2EB0E0291420DD9E6
:10387000881A2860DCF838002060DCF818006060E6
:103880000024FEF77BFD2046B0BD00BF00200124D0
:103890002860FEF773FD2046B0BD00002DE9F0431F
:1038A00083B007469000984615468946FEF736FBDA
:1038B000F8B106465C20FEF731FBB8B10446DDE9FD
:1038C0000A100022266384F85920CDE900103846FA
:1038D00049462A4643460294FEF758F82046FDF72B
:1038E000CBFE012003B0BDE8F08300BF3046FEF7F9
:1038F0005DFD4FF0FF3003B0BDE8F08370B586B0DA
:103900000B9CCCB10C9E0EB35C250495049D5C2DE4
:1039100026D1049DDDF828C0022586F8595005AD52
:103920003463CDE900C50296FEF730F83046FDF766
:10393000A3FE059806B070BD4FF0500080F31188CB
:10394000BFF36F8FBFF34F8FFEE700BF4FF0500004
:1039500080F31188BFF36F8FBFF34F8FFEE700BF77
:103960004FF0500080F31188BFF36F8FBFF34F8F7C
:10397000FEE7000040F20010C2F2000001690029D9
:103980000FBF01204069B0FA80F0400918BF400025
:103990007047000040F20010C2F2000080697047DA
:1039A00080B5FEF787FD40F20010C2F2000080698A
:1039B00080BD00002DE9F04381B040F20016C2F254
:1039C0000006706940B1706B0024013070632046BE
:1039D00001B0BDE8F08300BFB06910F10109C6F87D
:1039E000189020D3F069006850B14FF0500080F378
:1039F0001188BFF36F8FBFF34F8F00BFFEE700BF8B
:103A0000F069316AF1613062B06B0130B063F06926
:103A1000006828B1F069C068C068406802E000BF73
:103A20004FF0FF30F062F06A40F25C388145C2F23C
:103A3000000801D200242EE0F0690024006813E0A1
:103A4000F86A716A884288BF706200EB800008EBF8
:103A500080002946FEF756FCF86A3168C96AF269A7
:103A6000884228BF0124106890B1F069C068C76817
:103A70003D4655F8040F81450CD32846FEF79EFBC2
:103A8000B86A0028DCD007F11800FEF797FBD7E7EB
:103A90004FF0FF30F0623068C06A00EB800058F8E9
:103AA0002000012888BF0124306B002818BF0124A2
:103AB000204601B0BDE8F08370B588B140F2001631
:103AC000C2F2000604463068A0420BD04FF050000E
:103AD00080F31188BFF36F8FBFF34F8FFEE700BFF6
:103AE000002070BD206D18B3411EE06AE26C2165B4
:103AF00090424FF0000008BF70BDC1B9251D284697
:103B0000FEF75CFBE06CC0F13801E062A161716A14
:103B1000884240F25C3188BF706200EB8000C2F2E4
:103B2000000101EB80002946FEF7ECFB012070BD8F
:103B30004FF0500080F31188BFF36F8FBFF34F8FAA
:103B4000FEE7000070B5C068C5686DB105F11804E6
:103B50002046FEF733FB40F20016C2F20006706901
:103B600060B106F164001AE04FF0500080F3118854
:103B7000BFF36F8FBFF34F8FFEE700BF2C1D2046B2
:103B8000FEF71CFBE86A716A884240F25C3188BF2C
:103B9000706200EB8000C2F2000101EB8000214660
:103BA000FEF7B0FBE86A3168C96A884292BF00201C
:103BB0000120306370BD00002DE9F04140F2001596
:103BC000C2F20005686968B1FEF7B4FB68690138A4
:103BD0006861686980B10024FEF7D0FB2046BDE82B
:103BE000F08100BF4FF0500080F31188BFF36F8F5A
:103BF000BFF34F8FFEE700BFE8680028EBD0686E88
:103C000088B340F25C36C2F200064FF0010800BFF4
:103C1000286FC76807F11800FEF7D0FA3C1D204650
:103C2000FEF7CCFAF86A696A884288BF686200EBDE
:103C3000800006EB80002146FEF764FBF86A2968E5
:103C4000C96A884228BFC5F83080686E0028DFD175
:103C5000E869006820B1E869C068C068406801E0B0
:103C60004FF0FF30E8626C6B4CB10126FFF7A2FE0B
:103C7000002818BF2E63013CF8D100206863286B30
:103C80000028A8D04EF60450CEF200004FF080512C
:103C90000160BFF34F8F0124BFF36F8FFEF76EFB00
:103CA0002046BDE8F081000070B586B0FEF742FB0B
:103CB00040F27816C2F20006306808BB06F1140420
:103CC0002046FEF7DDFA06F128052846FEF7D8FA69
:103CD00040F26C2240F20C33C6E902450025C2F2E4
:103CE0000002C2F200030A2010210095FFF780FABB
:103CF000306028B143F6E851C0F60001FEF70AFC37
:103D0000FEF73CFB3068D8B10020CDE9040005A8DF
:103D100004A903AAFEF780FADDE903200221059D2C
:103D2000CDE9001041F61D30C0F6000009A10023C6
:103D30000295FFF7E3FD706010B1012006B070BD81
:103D40004FF0500080F31188BFF36F8FBFF34F8F98
:103D5000FEE700BF546D72205376630080B584B0D7
:103D60009C466FF00103CDE9003040F27810C2F2BA
:103D70000000006802910392694662460023FFF743
:103D8000BDFB04B080BDF1EE100A4FF6FF71C0F22A
:103D9000C03120EA010040F04070E1EE100A7047A7
:103DA00000000000000000000102030406070809EB
:103DB0000000000001020304DC3D000800000000D8
:103DC00000000000000000000000000000020000F1
:103DD000180000000000000000000000646566613B
:103DE000756C745461736B00546D7251007465731B
:103DF000745F73656D6170686F726500746573746C
:103E0000315461736B00746573745461736B007427
:103E10006573745F6576656E745F666C6167730069
:103E2000403E000800000020A0000000C40100087F
:103E3000E03E0008A000002018500000E00100084B
:103E40000100000010000000ED3D0008000000002F
:103E500000000000000000000F3E0008000000000D
:103E60000000000000000000063E00080000000006
:103E7000000000000000000000000000000400003E
:103E8000180000000000000000000000FC3D0008D9
:103E90000000000000000000000000000000000022
:103EA00000040000180000000000000000000000F6
:103EB0000024F400063E000800000000000000009E
:103EC00000000000000000000004000018000000D6
:103ED0000000000000000000AAAAAAAA000000003A
:040000050800018965
:00000001FF
