:020000040800F2
:100000008850002029020008AD0F0008590F000891
:10001000A90F00082105000879120008000000005F
:100020000000000000000000000000002110000897
:100030002505000800000000B10F00084D10000861
:10004000430200084302000843020008430200087C
:10005000430200084302000843020008430200086C
:10006000430200084302000843020008430200085C
:10007000430200084302000843020008430200084C
:10008000430200084302000843020008430200083C
:10009000430200084302000843020008430200082C
:1000A000430200084302000843020008430200081C
:1000B000430200084302000843020008430200080C
:1000C00043020008430200084302000843020008FC
:1000D00043020008430200084302000843020008EC
:1000E00043020008430200084302000843020008DC
:1000F00043020008430200084302000843020008CC
:1001000043020008430200084302000843020008BB
:1001100043020008430200082911000843020008B6
:10012000430200084302000843020008430200089B
:10013000430200084302000843020008430200088B
:10014000430200084302000843020008430200087B
:10015000430200084302000843020008430200086B
:10016000430200084302000843020008430200085B
:100170004302000843020008430200080000000098
:10018000430200084302000800F002F800F03CF8C7
:100190000AA090E8000C82448344AAF10107DA45E2
:1001A00001D100F031F8AFF2090EBAE80F0013F0F8
:1001B000010F18BFFB1A43F001031847A4360000D3
:1001C000C4360000103A24BF78C878C1FAD8520764
:1001D00024BF30C830C144BF04680C6070470000C1
:1001E0000023002400250026103A28BF78C1FBD840
:1001F000520728BF30C148BF0B6070471FB503F0DE
:10020000EBFA1FBD10B510BD00F04FF91146FFF716
:10021000F5FF01F055F800F06DF903B4FFF7F2FFB8
:1002200003BC00F075F90000094880470948004701
:10023000FEE7FEE7FEE7FEE7FEE7FEE7FEE7FEE796
:10024000FEE7FEE704480549054A064B70470000F3
:100250001511000889010008884A002088500020F4
:10026000884C0020884C002053EA020C00F0698082
:100270002DE9F04B4FF00006002B1FBFB3FA83F5BA
:1002800003FA05F424FA05F65E4012BF1643B2FAEB
:1002900082F502FA05F4C5F120051EBF22FA05FC1D
:1002A00044EA0C04203556EA044C4FEA144418BFC3
:1002B000641C4FF000084FF00009904271EB030CF2
:1002C00039D3002919BFB1FA81F701FA07F6B0FA5C
:1002D00080F700FA07F6C7F120071EBF20FA07FCD7
:1002E00046EA0C062037B6FBF4FCA7EB0507103FE7
:1002F00007F01F0BCBF120062CFA06F60CFA0BFBCD
:1003000044BFB3460026202FA4BF5E464FF0000B2B
:100310005BEA060C08BF4FF0010B19EB0B0948EB29
:100320000608ABFB027C06FB02CC0BFB03CCC01B1C
:1003300071EB0C01C1E70B46024641464846BDE859
:10034000F08B13B5084318BF4FF0FF300146AFF3F1
:100350000080BDE81C407047032A40F2308010F056
:10036000030C00F0158011F8013BBCF1020F624450
:1003700098BF11F801CB00F8013B38BF11F8013BE1
:10038000A2F1040298BF00F801CB38BF00F8013B8E
:1003900011F0030300F05780083AC0F0088051F8CC
:1003A000043B083A51F804CBA0E80810F5E7121D09
:1003B0005CBF51F8043B40F8043BAFF30080D20728
:1003C00024BF11F8013B11F801CB48BF11F8012BF4
:1003D00024BF00F8013B00F801CB48BF00F8012B17
:1003E000704702F0FF0343EA032242EA024200F0B0
:1003F00002B84FF0000200B51346944696462039E5
:1004000022BFA0E80C50A0E80C50B1F12001BFF4CD
:10041000F7AF090728BFA0E80C5048BF0CC05DF833
:1004200004EB890028BF40F8042B08BF704748BF81
:1004300020F8022B11F0804F18BF00F8012B7047F5
:1004400070477047704710B5203AC0F00B80B1E894
:100450001850A0E81850B1E81850A0E81850203AF9
:10046000BFF4F5AF5FEA027C24BFB1E81850A0E802
:10047000185044BF18C918C0BDE810405FEA827C1C
:1004800024BF51F8043B40F8043B08BF7047D20733
:1004900028BF31F8023B48BF11F8012B28BF20F8D4
:1004A000023B48BF00F8012B7047754600F02CF85E
:1004B000AE4605006946534620F00700854618B051
:1004C00020B5FFF7BFFEBDE820404FF000064FF01B
:1004D00000074FF000084FF0000BAC46ACE8C00935
:1004E000ACE8C009ACE8C009ACE8C00921F00701DC
:1004F0008D46704710B50446AFF300802046BDE836
:100500001040FFF78ABE00000048704770000020CE
:1005100001491820ABBEFEE726000200704700002C
:10052000FEE700007047000044F28830C2F200008D
:100530000068704740F2000044F28831C2F20000C7
:10054000C2F2000100780A68104408607047000099
:1005500080B543F60040C4F20200016841F4007126
:100560000160016841F480610160016841F48071BB
:100570000160032000F0C8F80F2000F005F800F03B
:1005800061F8002080BD000070B586B0002543F6FC
:1005900040010195C4F202010A68044642F01002CB
:1005A0000A60096801A801F01001019101996946EA
:1005B00000F06AF9049E002E18BF012600F084F9AD
:1005C0004DF68361B040C4F21B31A0FB01014FF036
:1005D000FF3000EB914140F2F01041F20002C2F214
:1005E0000000C4F2000240F2E733C0E90021C0E994
:1005F00002530561856100F06FFB054610B1284686
:1006000006B070BD40F2F010C2F2000000F094FBA2
:1006100005460028F3D1362000F036F80F2C0DD80F
:10062000362021460022002500F042F840F2040066
:10063000C2F200000460284606B070BD01252846BD
:1006400006B070BD82B0002043F640010190C4F2B4
:1006500002014A6842F480424A604A6802F48042D9
:100660000192019A00900868002240F080500860D2
:1006700008680F2100F08050009000986FF0010092
:1006800002B000F015B80000002848BF7047C1B2A2
:1006900000F01F00012202FA00F04EF20012CEF22A
:1006A000000242EAD10121F0030108607047000016
:1006B00010B54EF60C5CCEF2000CDCF80030C3F343
:1006C000022E8EF00704042C28BF0424BEF103037D
:1006D0004FF0FF3E0EFA04F438BF0023A1439940C7
:1006E0000EFA03F39A43114300F00F0200F1604346
:1006F0000901043A03F564436244002848BF02F14B
:100700000C03197010BD00004EF60C51CEF2000122
:100710000A684FF6FF031A4060F30A2242F0806035
:1007200040F0FD70086070472DE9F041002800F0AE
:100730008B8043F60808C4F202080446D8F8F80390
:100740000D4600F00700884207D288F8F853D8F821
:10075000F80300F00700A84276D12068810717D57A
:10076000410705D5D8F8001041F4E051C8F8001051
:10077000010705D5D8F8001041F46041C8F8001011
:10078000D8F80010A26821F0F0011143C8F8001059
:10079000C0073FD1D8F8F80300F00700A84207D9F6
:1007A00088F8F853D8F8F80300F00700A8424BD1B6
:1007B0002068410707D5D8F80010E26821F4E0511D
:1007C0001143C8F80010000708D5D8F800002169C7
:1007D00020F4604040EAC100C8F8000000F088F84A
:1007E000D8F8001043F2F272C1F30311C0F6000210
:1007F000515C40F2680220FA01F140F20400C2F2BA
:1008000000000068C2F200021160FFF7BDFE002088
:10081000BDE8F0816068811E022907D258F8081CE3
:1008200089015CBF0120BDE8F08111E0012807D1FA
:1008300058F8081C89035CBF0120BDE8F08107E07F
:1008400058F8081C890703D40120BDE8F08100BFD7
:10085000D8F8001021F003010843C8F80000FFF7A2
:1008600063FE064641F28837D8F80000616800F060
:100870000C00B0EB810F8DD0FFF756FE801BB84205
:10088000F2D90320BDE8F0810F22026043F608028E
:10089000C4F20202136803F003034360136803F019
:1008A000F0038360136803F4E053C360D2F800C020
:1008B0004FF4E05303EADC030361D2F8F80300F0DD
:1008C000070008607047000040F2680043F6080126
:1008D000C2F20000C4F202010068096843F6020295
:1008E000C1F38221C0F60002515CC840704700008D
:1008F00010B543F60404C4F20204606800F00C0072
:1009000008280BD0042819BF42F20040C0F2F400BE
:1009100041F60030C0F2B70010BD00BF206821686A
:100920002368490241F60031C0F2B70100F03F02EE
:10093000C3F388105CBF42F20041C0F2F401A1FB96
:1009400000010023FFF790FC21680222C1F301415E
:1009500002EB4101B0FBF1F010BD00002DE9F041C8
:1009600082B0002868D00446007843F60006C0072D
:10097000C4F202060BD0B06800F00C00042840F06E
:100980009F803068800302D56068002854D02078AA
:1009900080071AD5B06810F00C0F09D0B06800F0CD
:1009A0000C00082840F0A6807068400200F1A28088
:1009B0003068800702D5E06801283DD130682169A0
:1009C00020F0F80040EAC10030602078000737D4FA
:1009D000207840074CD4A56955B3B06800F00C00EE
:1009E000082840F0BB80012D26D07068E16900F432
:1009F00080028A4220D1216A00F03F028A421BD144
:100A000047F6C071626A0140B1EB821F14D1A16A3E
:100A10004FF6FF73C903994300F44032A1F58031CA
:100A20008A4209D1E16A00F07060B0EB016F03D136
:100A3000002002B0BDE8F081012002B0BDE8F081E5
:100A40006069002840F20000C4F2472076D00121FE
:100A5000C0F8801EFFF768FD054600BF706F800775
:100A6000B6D4FFF761FD401B0228F7D9DDE000BFD7
:100A7000306C10F080580AD100200190306C40F0AA
:100A800080503064306C00F080500190019847F243
:100A90000007C4F200073868C00541D4386840F444
:100AA00080703860FFF740FD054600BF3868C0051C
:100AB00036D4FFF739FD401B0228F7D9B5E000BF57
:100AC000B06800F00C00082803D1706840023FF5C0
:100AD00058AF6068B0F5803F07D0B0F5A02F40F068
:100AE0008D80306840F480203060306840F4803081
:100AF00030608DE0E068002852D00020C4F247202A
:100B000001210160FFF710FD054600BF3068800736
:100B10003FF554AFFFF708FD401B0228F6D984E0EB
:100B2000A068012805D005284ED1306F40F00400A0
:100B30003067306F40F0010030674FE00021C0F8AF
:100B4000801EFFF7F1FC0546706F80077FF540AF10
:100B5000FFF7EAFC401B0228F6D966E00027C4F242
:100B6000472700203866FFF7DFFC022D05460BD132
:100B7000306880015ED5FFF7D7FC401B02284FF09C
:100B80000300F5D955E700BF306880017FF550AF0D
:100B9000FFF7CAFC401B02284FF00300F4D948E7D6
:100BA0000020C4F2472000210160FFF7BDFC05468C
:100BB000306880077FF509AFFFF7B6FC401B0228BD
:100BC0004FF00300F4D934E7316F002821F0010120
:100BD0003167316F21F0040131674DD0FFF7A4FC7C
:100BE000054641F2883700BF306F800756D4FFF7C3
:100BF0009BFC401BB842F7D917E000BF31680028C2
:100C000021F480313160316821F4802131604FD08E
:100C1000FFF78AFC054600BF306880033FF5B7AE9A
:100C2000FFF782FC401B6428F6D9032002B0BDE820
:100C3000F08100BF04F11C052FCD084340EA82106B
:100C4000D9034FF6FF729143A1F5803140EA056068
:100C50000843706001203866FFF766FC044600BF59
:100C6000306880013FF5E4AEFFF75EFC001B022810
:100C70004FF00300F4D9DCE6FFF756FC054641F2DD
:100C8000883700BF306F800708D5FFF74DFC401B49
:100C9000B8424FF00300F5D9CBE600BFB8F1000F22
:100CA0007FF499AE306C20F08050306493E600BF42
:100CB000FFF73AFC054600BF306880037FF567AE5A
:100CC000FFF732FC401B64284FF00300F4D9B0E674
:100CD0007047000070470000002804BF01207047E3
:100CE00010B5044690F83D0028B9002084F83C0077
:100CF000204600F01FF8022084F83D002068211DE6
:100D000000F018FA012084F8460084F83E0084F8C8
:100D10003F0084F8400084F8410084F8420084F8E1
:100D2000430084F8440084F8450084F83D00002026
:100D300010BD00007047000090F83D1001291CBF55
:100D400001207047022180F83D10006841F2FF72D7
:100D5000C168C4F20002904241F00101C1600DDCA3
:100D600040F2FF71C4F20001884215DCB0F1804FFF
:100D70002AD040F20041C4F2000123E040F2FF31EA
:100D8000C4F20101884213DC41F60001C4F2000103
:100D9000884219D0002113E040F60001C4F200019E
:100DA000884211D040F60041C4F200010AE000BFC1
:100DB00044F20001C4F20101884205D040F2004132
:100DC000C4F20101884206D1816801F007010629B9
:100DD00004BF00207047016841F00101016000205C
:100DE000704700007047000070B504460068C56891
:100DF0000669B10716D515F0020113D06FF0020194
:100E00000161012121778069800703D02046FFF727
:100E1000E9FF05E0204600F08FF8204600F08EF84C
:100E200000202077700719D515F0040016D020682F
:100E30006FF00401016102212177806910F4407F85
:100E400004D02046FFF7CEFF06E000BF204600F0AA
:100E500073F8204600F072F800202077300717D58D
:100E600015F0080014D020686FF00801016104211A
:100E70002177C069800703D02046FFF7B3FF05E064
:100E8000204600F059F8204600F058F8002020775E
:100E9000F00619D515F0100016D020686FF010017B
:100EA000016108212177C06910F4407F04D02046F9
:100EB000FFF798FF06E000BF204600F03DF820460F
:100EC00000F03CF800202077F00718BF15F0010073
:100ED00002D1300609D412E020686FF001010161EF
:100EE000204600F02DF8300609D515F0800006D018
:100EF00020686FF0800101612046FFF7E9FE70066F
:100F000009D515F0400006D020686FF0400101615E
:100F1000204600F01FF8B00658BF70BD15F0200045
:100F200008D021686FF0200220460A61BDE87040B9
:100F3000FFF7D0BE70BD0000704700007047000092
:100F4000006841F20001C4F20001884218BF7047F6
:100F5000FFF7F0BA70470000FEE7000080B501F02F
:100F6000C9F841F2450043F60C02C0F60000C0F695
:100F70000002002100F0FAFA40F2EC11C2F2000186
:100F8000086080BD81B00020009043F63000C4F2BC
:100F90000200016841F080010160006800F08000FB
:100FA0000090009801B07047FEE70000FEE70000E7
:100FB000EFF30980BFF36F8F154B1A681EF0100F07
:100FC00008BF20ED108A20E9F04F10602DE90900DC
:100FD0004FF0500080F31188BFF34F8FBFF36F8F36
:100FE00001F056FC4FF0000080F31188BDE80900C5
:100FF00019680868B0E8F04F1EF0100F08BFB0EC99
:10100000108A80F30988BFF36F8F704700BF00BF5D
:10101000D0000020000000000000000000000000E0
:10102000074B19680868B0E8F04F80F30988BFF3F0
:101030006F8F4FF0000080F31188704700BF00BF32
:10104000D0000020012000F049F9FBE780B54EF206
:101050001000CEF20000006802F0CAF9012808BFB3
:1010600080BDBDE8804001F033BD0000B0B592B056
:10107000002443F64000CDE90A44CDE90844059434
:10108000CDE90344CDE901440094C4F202000168B3
:10109000022541F080510160006800F0805000900E
:1010A000009847F200000094C4F20000016841F487
:1010B00080410160006800F48040009000980120A9
:1010C00006904FF4803007904FF480000D9006207A
:1010D0000E90A820CDE90F050420119006A80C95CC
:1010E000FFF73CFC10B172B6FEE700BF0F20CDE960
:1010F00001054FF4A05004904FF48050059001A8D2
:1011000005210394FFF710FB10B172B6FEE700BF94
:1011100012B0B0BD4EF68850CEF20000016841F426
:10112000700101607047000040F2F010C2F2000050
:10113000FFF75ABEB0B540F6FF3E0568C4F2000E98
:1011400040F2004C7045C4F2010C27DCB0F1804F36
:1011500031D040F20043C4F2000398422BD040F655
:101160000003C4F20003984225D041F6FF73C4F295
:10117000000398422ADC70453CDCB0F1804F5FD020
:1011800040F20043C4F20003984259D040F60003F5
:10119000C4F20003984253D057E000BF40F600432A
:1011A000C4F20003984206D0604504D00023C4F284
:1011B00001039842D9D14B6825F0700243EA020539
:1011C00041F6FF73C4F200039842D4DD43F6FF7387
:1011D000C4F20103984221DC42F20003C4F200038E
:1011E00098422DD00023C4F20103984228D06045D4
:1011F00026D02AE040F60043C4F2000398421FD0F4
:1012000041F60003C4F20003984219D041F60043AE
:10121000C4F20003984213D017E000BF44F2000369
:10122000C4F2010398420BD044F60003C4F2010358
:10123000984205D044F20043C4F20103984204D11D
:10124000CB6825F4407243EA02050A688C684B6952
:10125000C46240F480648262644504BF096901632A
:10126000026825F0800142F0040219430260012265
:1012700042610160B0BD0000FEE7000040F2D415FD
:10128000C2F200052C1D00BFE868214600224FF085
:10129000FF3300F089F8F7E740F2D414C2F20004FB
:1012A00000F048F821680546E068013121602146D8
:1012B0000022002300F006F9681C00F01FF8EFE799
:1012C000FFF746F9FFF7D2FEFFF75CFE00F03AF8B1
:1012D000FFF744FE00F04AF8FEE70000EFF3058157
:1012E00000291CBF6FF005007047002804BF0020D4
:1012F000704780B501F01CF9002080BD10B582B0A8
:10130000EFF3058121B16FF0050002B010BD00BF01
:10131000044602F07DF80146019084426FF003001C
:1013200005D0611A03D401A801F042F9002002B0EF
:1013300010BD0000EFF30580002808BF02F068B878
:1013400002F06CB8EFF3058000281CBF6FF00500B9
:10135000704740F2E810C2F200000168002911BF96
:101360004FF0FF30012101600020704710B5EFF30E
:10137000058000281CBF6FF0050010BD40F2E8108A
:10138000C2F20000016801291CBF4FF0FF3010BD00
:101390004EF61F51CEF2000100240C7002210160B4
:1013A00001F0F6F9204610BD10B582B01C46B0FA27
:1013B00080F3B1FA81F25B095209EFF3058CBCF1BD
:1013C000000F42EA030219D0002C18BF0124224367
:1013D00015D10022019201AA01F0DAFE01281BD1E9
:1013E0000198B0B14EF60450CEF200004FF080519B
:1013F0000160BFF34F8FBFF36F8F0AE022B16FF030
:10140000030002B010BD00BF224601F0EFFD01282D
:1014100006D1002002B010BD6FF0020002B010BD76
:101420006FF00100002C08BF6FF0020002B010BD89
:1014300070B582B0154600294FF00004EFF3058225
:1014400018BF002802D1204602B070BD002AFAD190
:10145000B5B1D5E902321BB3502A26D32A6922B38B
:101460006E6901FB00F4A6424FF00004EBD3009438
:1014700001F08AFB06460028E5D02C6807E000BF93
:101480000022002401F03CFB06460028DBD0304659
:10149000214600F0CBFF3446204602B070BD00BFAD
:1014A0001AB92A690AB96A6922B10024204602B031
:1014B00070BD00BF0022002401F022FB0646002878
:1014C000DBD1C0E7B0B582B01C46B0FA80F3B1FA08
:1014D00081F5EFF305825B096D09002A43EA0502F5
:1014E0000AD0002C18BF012422430BD06FF0030553
:1014F000284602B0B0BD00BFF2B16FF00305284628
:1015000002B0B0BD0022019201AA002301F0C2FC8A
:10151000012821D1019828B34EF60450CEF20000E4
:101520004FF080510160BFF34F8FBFF36F8F0025E5
:10153000284602B0B0BD00BF22460023002501F0BE
:1015400093FB0128D4D06FF00105002C08BF6FF089
:101550000205284602B0B0BD6FF00205284602B071
:10156000B0BD00BF0025284602B0B0BD2DE9F04156
:1015700084B08E4600240394EFF3058150B149B93D
:101580004FF0000452B19369002B08BF1823382B89
:1015900016D90024204604B0BDE8F0818025182328
:1015A000002103AF0093AAB27346019701F0B4FE85
:1015B0000399012808BF0C46204604B0BDE8F0811D
:1015C0001179C90724D15769D2E902864FEA970CED
:1015D0001168002F654608BF8025B8F1000F13D0B1
:1015E0005C2E15D312690024002A18BF002FD1D019
:1015F000CDE9003262467346CDF8088001F0BCFEAA
:1016000004B0BDE8F08100BF16B91269002AC8D045
:101610000024204604B0BDE8F08100002DE9F0412F
:10162000044600F013FE40F2D006C2F20006F06855
:1016300040F228350130F0603068C2F2000558B140
:101640003069002840F007813068E16AC06A88424A
:1016500098BF3460FFE000BF3460F068012840F0BC
:10166000FA80284600F098FD05F1140000F094FD82
:1016700005F1280000F090FD05F13C0000F08CFD24
:1016800005F1500000F088FD05F1640000F084FDD4
:1016900005F1780000F080FD05F18C0000F07CFD84
:1016A00005F1A00000F078FD05F1B40000F074FD34
:1016B00005F1C80000F070FD05F1DC0000F06CFDE4
:1016C00005F1F00000F068FD05F5827000F064FDA2
:1016D00005F58C7000F060FD05F5967000F05CFD7E
:1016E00005F5A07000F058FD05F5AA7000F054FD56
:1016F00005F5B47000F050FD05F5BE7000F04CFD2E
:1017000005F5C87000F048FD05F5D27000F044FD05
:1017100005F5DC7000F040FD05F5E67000F03CFDDD
:1017200005F5F07000F038FD05F5FA7000F034FDB5
:1017300005F5027000F030FD05F5077000F02CFD96
:1017400005F50C7000F028FD05F5117000F024FD82
:1017500005F5167000F020FD05F51B7000F01CFD6E
:1017600005F5207000F018FD05F5257000F014FD5A
:1017700005F52A7000F010FD05F52F7000F00CFD46
:1017800005F5347000F008FD05F5397000F004FD32
:1017900005F53E7000F000FD05F5437000F0FCFC1F
:1017A00005F5487000F0F8FC05F54D7000F0F4FC0C
:1017B00005F5527000F0F0FC05F5577000F0ECFCF8
:1017C00005F55C7000F0E8FC05F5617000F0E4FCE4
:1017D00005F5667000F0E0FC05F56B7000F0DCFCD0
:1017E00005F5707000F0D8FC05F5757000F0D4FCBC
:1017F00005F57A7000F0D0FC05F57F7000F0CCFCA8
:1018000005F5826000F0C8FC05F2244000F0C4FC3D
:1018100005F5876000F0C0FC05F24C4000F0BCFC10
:1018200040F2AC18C2F20008404600F0B5FC08F1E6
:101830001407384600F0B0FC06F1640000F0ACFC80
:1018400006F13C0000F0A8FC06F1500000F0A4FCFA
:10185000C6F81C8037627068716A421CE06A726068
:101860008842626488BF706200EB800005EB8000F4
:10187000211D00F0D3FC00F00DFD306988B1306807
:10188000E16AC06A884228BFBDE8F0814EF6045084
:10189000CEF200004FF080510160BFF34F8FBFF3D5
:1018A0006F8FBDE8F081000040F2D00540F228368D
:1018B0004EF60458C2F20005C2F20006CEF200084D
:1018C0004FF0805703E000BF204600F0FBFCA86803
:1018D000D0B100F0BBFCA86CC468201D00F02EFC49
:1018E000E8680138E860A8680138A86000F0D2FC18
:1018F00094F859000228EAD00128E5D070B9206B8D
:1019000000F0E0FCE0E700BF30680228DFD3C8F851
:101910000070BFF34F8FBFF36F8FD8E74FF05000C9
:1019200080F31188BFF36F8FBFF34F8FFEE7000086
:101930002DE9F0470A9C8246206B16460F46DDE9EA
:1019400008599100A5229846FEF74BFD206B002F09
:1019500000EB8600A0F1040020F0070656D038788E
:1019600084F83400387800284BD0787884F8350033
:101970007878002845D0B87884F83600B878002800
:101980003FD0F87884F83700F878D0B3387984F805
:1019900038003879A8B3787984F83900787980B339
:1019A000B87984F83A00B87958B3F87984F83B00EC
:1019B000F87930B3387A84F83C00387A08B3787A0A
:1019C00084F83D00787AE0B1B87A84F83E00B87ABD
:1019D000B8B1F87A84F83F00F87A90B1387B84F88F
:1019E0004000387B68B1787B84F84100787B40B157
:1019F000B87B84F84200B87B00281CBFF87B84F8D1
:101A00004300002084F8430003E000BF002084F876
:101A100034000027201D372D28BF3725E562C4E993
:101A2000135700F0C5FB04F1180000F0C1FBC5F12D
:101A30003800A061304651464246246164626765C1
:101A400084F8587000F042FBB9F1000F206018BF15
:101A5000C9F80040BDE8F08708480068006880F3D6
:101A600008884FF0000080F3148862B661B6BFF3B7
:101A70004F8FBFF36F8F00DF00BF000008ED00E065
:101A800081B00020009040F26C00C2F200000068BB
:101A90004FF0500181F31188BFF36F8FBFF34F8F69
:101AA000013007D0FEE700BF009830B9009820B998
:101AB000009810B900980028F6D001B070470000D7
:101AC00088B040F2481AC2F2000A0DF11009EB4644
:101AD000DAF8080005681DB1C068046801E000BFBD
:101AE000002400F0CDFE01F093FCDAF81010064659
:101AF000884220D3002DCAF8106051D0A6424FD39F
:101B000001F098FDDAF80800C068C7683D1D284656
:101B100000F014FB97F82800410745D400F0FE00C0
:101B200087F8280084E000BF6860DAF808003946CA
:101B30002D6100F041FBDAF80800016831B3C0689C
:101B4000C56804682F1D384600F0F8FA296A28464F
:101B5000884795F828004007EDD5A8692044A042A1
:101B6000E2D8DAF80000002800F04881002004A93B
:101B700031C101F03DFCDAF80000494600220023A3
:101B800001F072F80028D6D138E100BFDAF80C1065
:101B9000CAF81060CAE9021001F04CFD1AE100BF5A
:101BA00065B1002210E000BFB8693F610119B14280
:101BB00079601FD90AF1080021E000BFDAF80C00B3
:101BC0000068B0FA80F04209DAF80000A11B00F0CA
:101BD00085FC01F02FFD002840F0FC804EF60450FB
:101BE000CEF200004FF080510160BFF34F8FBFF382
:101BF0006F8FEFE0311B814206D20AF10C000068C2
:101C0000294600F0D9FA13E0DAF80000002800F0C5
:101C10001381002004A991C101F0EAFBDAF8000069
:101C200049460022002301F01FF8002800F004813B
:101C3000396A38468847CDE00098B0F1FF3F07DCAD
:101C4000DDE90120039990470098002800F1C28047
:101C5000029E706910B1301D00F070FA01F0D8FBDF
:101C6000DAF81010074688420DD30098CAF81070B1
:101C700009283FD9AEE000BF6860DAF808002146C5
:101C80002D6100F099FADAF80800016841B3C068E4
:101C9000C568D0F800802C1D204600F04FFA296A54
:101CA0002846884795F828004007ECD5A8694044A5
:101CB0004045E1D8DAF80000002800F095800020C7
:101CC000CDE90408069501F093FBDAF800004946D7
:101CD0000022002300F0C8FF0028D4D184E000BF18
:101CE000DAF80C10CAE902100098CAF81070092836
:101CF00000F27080DFE800F006060644486206063F
:101D0000444800BF96F82800019A40F00101B069EC
:101D100086F828108318314641F8043FBB423661EB
:101D200006D997420AF1080007D293420AD204E08A
:101D3000BA1A824206D20AF10C00006800F03CFA9E
:101D400048E000BF316A3046884796F828004007CF
:101D500040D5DAF8000000285AD00198B1690696FB
:101D600008440021CDE9041001F042FBDAF800003C
:101D700049460022002300F077FF58BB48E000BF2F
:101D800096F8280022E000BF96F8280040F00101F4
:101D9000019886F828100028B06143D038443146B5
:101DA0000AF10C0241F8040F3661B84288BF0AF10B
:101DB0000802106800F000FA0CE000BF96F8280056
:101DC000810703D4304600F07DFA03E000F0FE0006
:101DD00086F82800DAF800005946002201F006F9DA
:101DE00000287FF429AF73E64FF0500080F311888C
:101DF000BFF36F8FBFF34F8FFEE700BF4FF0500070
:101E000080F31188BFF36F8FBFF34F8FFEE700BFE2
:101E10004FF0500080F31188BFF36F8FBFF34F8FE7
:101E2000FEE700BF4FF0500080F31188BFF36F8FC3
:101E3000BFF34F8FFEE700BF4FF0500080F31188D3
:101E4000BFF36F8FBFF34F8FFEE70000F0B581B097
:101E5000044600F0FBF994F94560012E0FDB04F114
:101E6000240500BF286850B1284601F0A9FB0028CE
:101E700018BF00F00DFCF0B2013E0128F2D8FF2699
:101E800084F8456000F006FA00F0E0F994F9447037
:101E9000012F0EDB04F11005286850B1284601F02F
:101EA0008FFB002818BF00F0F3FBF8B2013F0128B8
:101EB000F2D884F8446001B0BDE8F04000F0EAB91F
:101EC00070B5044600F0DCFC40F2841CC2F2000C49
:101ED000DCF8040050B19CF80000002818BF4FF057
:101EE00000404FF0000574BB8DE000BF40F28870E9
:101EF000C2F20000C21D22F0070210F00701A0EBA1
:101F0000020318BF104600224FF47055CCE90602B8
:101F1000002918BF03F57055411921F00701A1F1FF
:101F20000803CCF8043041E90222191AC0E9003153
:101F300001208CF800004FF00040CCE90211002C89
:101F40004FF000055FD020405DD124F0070000F184
:101F50001002600708BF04F10802002A4FF00005D4
:101F600051D0DCF8080082424DD8604650F818EF96
:101F7000DEF8045095422CD2DEF80010C1B1744650
:101F80004D68954218D20B68B3B15D68954217D27F
:101F90001868A8B14568954216D20468A4B165686E
:101FA000954215D22168A6460029E9D111E000BF6B
:101FB0000CF118000DE000BF8E46204609E000BF7E
:101FC0009E46084605E000BF8646184601E000BF71
:101FD000A646DCF804108E4514D00168DEF80040F7
:101FE000AB1A112B04604DD30EEB0205680719D014
:101FF0004FF0500080F31188BFF36F8FBFF34F8F06
:10200000FEE700BF002501F015FB68075BD04FF02D
:10201000500080F31188BFF36F8FBFF34F8F00BF65
:10202000FEE700BF0CF118006B60CEF8042000BF83
:102030000368AB420AD21868A8420BD20368AB42CD
:1020400004D218681A46A842F2D304E002461846A1
:1020500001E000BF1A4653686C68D618AE4202D140
:102060001C44154654602B19834207D1DCF8043018
:10207000984203D0D0E9000323446B60AA42286051
:1020800018BF156001F10805DEF80400DCE9021252
:10209000091A9142CCF8081038BFCCF80C109CF803
:1020A0000010002918BF40F00040CEF80400DCF812
:1020B000100000210130CEF80010CCF8100001F023
:1020C000B9FA6807A3D1284670BD0000034641F65F
:1020D0008120C0F600004FF0807C21F0010103E96F
:1020E00003106FF0020043F8240CA3F1440043F8FE
:1020F000202C7047B0B540F20804C2F2000441F24F
:10210000992004F11802C0F600000021FFF72EFA12
:1021100040F2D415C2F20005A86041F27D2004F11E
:102120003C02C0F600000021FFF720FA28611020D1
:1021300004212246FFF77CF9E860B0BDD0E9013206
:1021400001699A60D1F804C082688445536008BF71
:102150004A60002202610868013808600868704718
:1021600044F28C53C2F20003036044F28C30C2F29A
:1021700000000860802010607047000044F6E813FB
:10218000C2F20003036044F2E850C2F200000860AB
:102190004FF48070106070474FF0FF31024642F8F4
:1021A000081F00214260C0E903220160704700005F
:1021B000002101617047000010B5D1F800E01EF168
:1021C000010213D000F1080462681368734511D846
:1021D00053681C68744511D85A68146874450FD840
:1021E00054682368A4467345EED90BE00269D2F81F
:1021F00004C007E09446224604E000BF9C4601E08C
:1022000094461A46C1F804C0CCF808108A605160A0
:10221000086101680131016010BD0000D0F800C004
:10222000436808619A684B608A609A689960516057
:102230000CF1010101607047DFF80C00016841F406
:10224000700101607047000088ED00E04FF0500021
:1022500080F31188BFF36F8FBFF34F8F40F26C0094
:10226000C2F2000001684A1C026009B1704700BF59
:102270004EF60450CEF200000068000608BF70471A
:102280004FF0500080F31188BFF36F8FBFF34F8F73
:10229000FEE7000040F26C00C2F20000016839B1B4
:1022A0000139016018BF7047002080F31188704722
:1022B0004FF0500080F31188BFF36F8FBFF34F8F43
:1022C000FEE7000070B5002808BF70BD40F284151D
:1022D000C2F200050446287854F8041C002818BFF0
:1022E0004FF0004008420DD0A4F1080632689AB1C0
:1022F0004FF0500080F31188BFF36F8FBFF34F8F03
:10230000FEE700BF4FF0500080F31188BFF36F8FDE
:10231000BFF34F8FFEE700BF21EA000044F8040C32
:1023200000F0AEFA54F8041CA8680844A86005F14F
:10233000180000BF0368B3420AD21868B04225D221
:102340000368B34204D218681A46B042F2D301E0DF
:10235000024618465368D418B44202D119441646AE
:1023600051607318834206D16B68984203D0D0E95C
:10237000000319447160B242306018BF166068698A
:1023800001306861BDE8704001F054B91A465368E5
:10239000D418B442E5D1E1E74EF21000CEF20000CD
:1023A00000210160816040F26801C2F20001096809
:1023B00044F6D352C1F26202A1FB02124FF0FF3188
:1023C00001EB9211416007210160704740F2A410B7
:1023D000EFF305811029C2F2000011D34EF2F03262
:1023E000CEF20002895C0278914209D24FF050008F
:1023F00080F31188BFF36F8FBFF34F8FFEE700BFED
:102400004EF60C51CEF200010968406801F4E0611B
:10241000814298BF70474FF0500080F31188BFF39E
:102420006F8FBFF34F8F00BFFEE7000044F6442CD0
:10243000C2F2000CDCF8002022B3634653F8082FE8
:1024400042B3634653F8102F52B3634653F8182F24
:1024500062B3634653F8202F72B3634653F8282FB4
:1024600082B3634653F8302F92B3634653F8382F44
:10247000002A18BF7047072219600CEBC2014860A0
:10248000704700BF0022634619600CEBC201486030
:10249000704700BF012219600CEBC2014860704711
:1024A000022219600CEBC2014860704703221960D8
:1024B0000CEBC20148607047042219600CEBC201AA
:1024C00048607047052219600CEBC20148607047F4
:1024D000062219600CEBC2014860704770B51546C2
:1024E0000E460446FFF7B2FE94F84400FF2804BFEE
:1024F000002084F8440094F84500FF2804BF002021
:1025000084F84500FFF7C6FEA06B28B12046BDE861
:102510007040FFF79BBC00BF04F1240031462A46FF
:1025200000F0F8F82046BDE87040FFF78FBC0000CF
:1025300070B588B340F2D005C2F200050446686960
:1025400050B14FF0500080F31188BFF36F8FBFF38D
:102550004F8F00BFFEE700BF686901306861AE6958
:1025600028680430FFF7EAFD2868A419446005D301
:10257000286A29680431FFF71FFE08E0E869296826
:102580000431FFF719FEE86A844238BFEC6201F0BB
:1025900051F8002818BF70BD4EF60450CEF200006E
:1025A0004FF080510160BFF34F8FBFF36F8F70BD4D
:1025B00070B588B1D1B140F2D004C2F200046269B2
:1025C000F2B14FF0500080F31188BFF36F8FBFF36B
:1025D0004F8F00BFFEE700BF4FF0500080F311881F
:1025E000BFF36F8FBFF34F8FFEE700BF4FF0500078
:1025F00080F31188BFF36F8FBFF34F8FFEE700BFEB
:10260000626901326261A26903689A42194403D285
:10261000994203D316E000BF994201D3914211D9E8
:102620000160A56920688E1A0430FFF787FD2068D5
:10263000AD19456008D3206A21680431FFF7BCFD5D
:102640000BE000BF016008E0E06921680431FFF79A
:10265000B3FDE06A854238BFE56200F0EBFF002879
:1026600018BF70BD4EF60450CEF200004FF08051FE
:102670000160BFF34F8FBFF36F8F70BD40F2D00189
:10268000C2F200018A6B02608969416070470000F4
:1026900040F2D000C2F20000012101637047000047
:1026A00070B5D8B140F2D004C2F200040D462168E2
:1026B0001831FFF781FDA66920680430FFF73EFD61
:1026C000681C15D02068AD19456019D3206A2168AF
:1026D0000431BDE87040FFF76FBD00BF4FF0500000
:1026E00080F31188BFF36F8FBFF34F8FFEE700BFFA
:1026F00054F8500B011D2046BDE87040FFF78EBD19
:10270000E06921680431FFF757FDE06A854238BF70
:10271000E56270BDF0B581B0C0B140F2D004C2F244
:1027200000040D46216816461831FFF777FDA769AA
:1027300020680430FFF702FD96B154F8500B011DDC
:10274000204601B0BDE8F040FFF768BD4FF05000F3
:1027500080F31188BFF36F8FBFF34F8FFEE700BF89
:102760002068ED19456007D3206A2168043101B063
:10277000BDE8F040FFF720BDE06921680431FFF7B4
:102780001BFDE06A854238BFE56201B0F0BD000084
:1027900010B588B00020CDE9050006A805A904AA57
:1027A000FFF7DEFC059800283ED0069C002C45D0A3
:1027B0005C21049A079107995C2949D10799206304
:1027C000022084F8590007A80021CDE9001041F645
:1027D000A900C0F6000028A100230294FFF7A8F882
:1027E0002046FEF71BFF079840F2D004C2F2000417
:1027F000A062B0B100F096FF411C33D0012810D187
:102800004FF0500080F31188BFF36F8FBFF34F8FED
:102810004FF0FF30E062012020610020A06100F055
:1028200095F808B010BD00BF4FF0500080F311883C
:10283000BFF36F8FBFF34F8FFEE700BF4FF0500025
:1028400080F31188BFF36F8FBFF34F8FFEE700BF98
:102850004FF0500080F31188BFF36F8FBFF34F8F9D
:10286000FEE700BF4FF0500080F31188BFF36F8F79
:10287000BFF34F8FFEE700BF49444C450000000006
:1028800040F2D000C2F2000041690131416170475D
:1028900080B540F2D00EC2F2000EDEF8141019B16D
:1028A0000121CEF8301080BD0021CEF83010DEF8C6
:1028B000241040F2283C01EB8103C2F2000C5CF8CA
:1028C00023208AB101EB81020CEB820353F8042F21
:1028D0005268181D82421A6020D0D068CEF80000DD
:1028E000CEF8241080BD00BF0CEB8302A2F12803B8
:1028F000E1B15A6922BB012918D01A6812BB02291A
:1029000014D053F8142CFAB903290FD053F8282CFB
:102910000439002AA3F15003EAD0D3E752681A60C1
:10292000D068CEF80000CEF8241080BD4FF05000E3
:1029300080F31188BFF36F8FBFF34F8FFEE700BFA7
:102940000139BFE70239BDE70339BBE7B0B584B051
:102950004EF2004CCEF2000C4CF27021C4F20F117A
:10296000DCF800294B1C9A420AD14FF0500080F34A
:102970001188BFF36F8FBFF34F8F00BFFEE700BF1B
:10298000DCF800298A4209D14FF0500080F3118809
:10299000BFF36F8FBFF34F8FFEE700BF9CF80010AF
:1029A0000291FF218CF800109CF800108DF80710A0
:1029B0009DF8071001F0500240F2A411C2F200018C
:1029C0000A7007224A609DF90720B2F1FF3F69DCD7
:1029D000032200BFD31C4B609DF8070040008DF818
:1029E00007009DF90700B0F1FF3F23DC931C4B600B
:1029F0009DF8070040008DF807009DF90700B0F131
:102A0000FF3F17DC531C4B609DF8070040008DF81A
:102A100007009DF90700B0F1FF3F0BDC4A609DF80D
:102A20000700043A40008DF807009DF907000028D0
:102A3000D0D4131D032B35D14FF440704860029859
:102A40008CF80000DCF8200940F47000CCF8200974
:102A5000DCF8200940F07040CCF82009FFF79CFC1E
:102A600040F26C04C2F2000400252560FFF7E4FB8D
:102A70004EF63470CEF20000016841F04041016032
:102A8000FEF7EAFFFFF704FF039520684FF05001BF
:102A900081F31188BFF36F8FBFF34F8F013011D0D7
:102AA000FEE700BF4FF0500080F31188BFF36F8F37
:102AB000BFF34F8FFEE700BF039830B9039820B9EA
:102AC000039810B903980028F6D0002004B0B0BDD8
:102AD00080B54FF0500080F31188BFF36F8FBFF3C4
:102AE0004F8F00F0A5FC30B14EF60450CEF200003E
:102AF0004FF080510160002080F3118880BD0000FC
:102B00002DE9F041B0B306464843503014460F4615
:102B1000FFF7D6F9054650B34FF00008284685F870
:102B20004680002F18BF50302860C5E90F67FFF7B7
:102B30008DFB2868D5E90F12C5F8388002FB010328
:102B4000013901FB0201C5E90103FF20E96085F8B5
:102B5000440085F8450005F11000FFF71DFB05F165
:102B60002400FFF719FBFFF795FB85F84C4028463A
:102B7000BDE8F0814FF0500080F31188BFF36F8FF4
:102B8000BFF34F8FFEE7000070B582B070B11C46F6
:102B9000B3B1F9B9F2B14FF0500080F31188BFF32F
:102BA0006F8FBFF34F8F00BFFEE700BF4FF05000A5
:102BB00080F31188BFF36F8FBFF34F8FFEE700BF25
:102BC0004FF0500080F31188BFF36F8FBFF34F8F2A
:102BD000FEE700BF51B14AB94FF0500080F31188B1
:102BE000BFF36F8FBFF34F8FFEE700BF50230193FA
:102BF000019B502B2ED1019B069E012384F8463069
:102C0000002908BF22462260C4E90F01FFF71EFB1E
:102C10002068D4E90F12002502FB0103013901FBF2
:102C20000201A563C4E90103FF20E16084F84400C8
:102C300084F8450004F11000FFF7AEFA04F1240017
:102C4000FFF7AAFAFFF726FB204684F84C6002B093
:102C500070BD00BF4FF0500080F31188BFF36F8F3D
:102C6000BFF34F8FFEE700002DE9F04F83B00292D3
:102C7000C0B11D4617460E460446E9B1022D03D1E8
:102C8000E06B012840F0888000F0B2FB10BB0FB36E
:102C90004FF0500080F31188BFF36F8FBFF34F8F59
:102CA000FEE700BF4FF0500080F31188BFF36F8F35
:102CB000BFF34F8FFEE700BF206C0028DED04FF03F
:102CC000500080F31188BFF36F8FBFF34F8F00BFA9
:102CD000FEE700BFFFF7BAFAA06B022D66D0E16BEA
:102CE000884263D304F1100801206F460DF10809F2
:102CF0000DE000BF2046FFF7A9F800F09BFCFFF7AE
:102D0000A5FAA06BE16B88424FF000004ED3029908
:102D1000002973D0C00702D03846FFF7AFFCFFF799
:102D2000B9FAFFF7ADFDFFF791FA94F84400FF28D8
:102D300004BF002084F8440094F84500FF2804BF35
:102D4000002084F84500FFF7A5FA3846494600F010
:102D500091FA002858D1FFF779FAD4F838A0D4F8BE
:102D60003CB0FFF797FADA45C4D102994046FFF725
:102D700097FC2046FFF76AF800F05CFC0028BED103
:102D80004EF60450CEF200004FF080510160BFF3C8
:102D90004F8FBFF36F8FB2E74FF0500080F3118871
:102DA000BFF36F8FBFF34F8FFEE700BFA76B226C9F
:102DB000D2B19DB3E0683146FDF7CEFAE168206CF0
:102DC0002268091A9142E16003D2A1684042084496
:102DD000E060A81EB0FA80F040093946002F18BF05
:102DE000012108403F1A26E02068002520BBA0688A
:102DF00000F0A0FBA56005461EE000BFFFF74AFA01
:102E0000002003B0BDE8F08F2046FFF71FF800F068
:102E100011FC002003B0BDE8F08F00BF60683146B0
:102E2000FDF79AFA216CD4E90102084490426060EF
:102E300001D3206860600025781CA06354F8240F3B
:102E4000A0B1204600F0BCFB50B14EF60450CEF2CB
:102E500000004FF080510160BFF34F8FBFF36F8FC1
:102E6000FFF718FA012003B0BDE8F08F002DF7D06E
:102E70004EF60450CEF200004FF080510160BFF3D7
:102E80004F8FBFF36F8FFFF705FA012003B0BDE846
:102E9000F08F00002DE9F04700B31E4614460546AA
:102EA0000F4629B3022E02D1E86B012852D1FFF759
:102EB0008DFAEFF311884FF0500080F31188BFF3C3
:102EC0006F8FBFF34F8FA86B022E1FD0E96B884224
:102ED0001CD3002088F31188BDE8F0874FF0500024
:102EE00080F31188BFF36F8FBFF34F8FFEE700BFF2
:102EF000286C0028D6D04FF0500080F31188BFF323
:102F00006F8FBFF34F8F00BFFEE700BF95F845906E
:102F1000A86BD5F838A02A6C32B36EB3E86839468E
:102F2000FDF71AFAE968286C2A68091A9142E960E3
:102F300003D2A96840420844E860B01EB0FA80F0AD
:102F400040095146BAF1000F18BF01210840AAEB11
:102F5000000A1EE04FF0500080F31188BFF36F8F1E
:102F6000BFF34F8FFEE700BF286890B9A86800F054
:102F7000E1FA0020A8600CE068683946FDF7ECF93A
:102F8000296CD5E9010208449042686001D32868A1
:102F900068600AF10100B9F1FF0FA86310D155F87C
:102FA000240FB8B1284600F00BFB0146002C4FF06F
:102FB000010018BF002913D188F31188BDE8F087FC
:102FC00009F1010085F84500012088F31188BDE86A
:102FD000F08700BF012088F31188BDE8F08700BFAB
:102FE0000120206088F31188BDE8F0872DE9F04FBB
:102FF00083B0029290B116460D460446002947D090
:1030000000F0F6F9A0B99EB14FF0500080F311889E
:10301000BFF36F8FBFF34F8FFEE700BF4FF050003D
:1030200080F31188BFF36F8FBFF34F8FFEE700BFB0
:10303000FFF70CF9D4F838A0BAF1000F36D0226CA3
:1030400052B1D4E902308118E160994224BF21686D
:10305000E1602846FDF780F9AAF10100A06354F869
:10306000100F70B1204600F0ABFA50B14EF604508C
:10307000CEF200004FF080510160BFF34F8FBFF3DD
:103080006F8F0124FFF706F9204603B0BDE8F08FEB
:10309000206C0028B4D04FF0500080F31188BFF3AB
:1030A0006F8FBFF34F8F00BFFEE700BF04F124080E
:1030B00001206F464FF000090DF1080B2EE000BF14
:1030C000FFF7E8F8FFF7DCFBFFF7C0F894F84400DF
:1030D000FF2808BF84F8449094F84500FF2808BFF3
:1030E00084F84590FFF7D6F83846594600F0C2F804
:1030F000E0B12046FEF7AAFE00F09CFAFFF7A6F822
:10310000A66BFFF7C7F8002E3CD0FFF79FF8D4F866
:1031100038A00020BAF1000F7FF491AF029949B3B3
:10312000C007CDD03846FFF7A9FAC9E7FFF78EF8F8
:10313000A66BFFF7AFF82EB12046FEF787FE00F032
:1031400079FAE2E702994046FFF7AAFA2046FEF72D
:103150007DFE00F06FFA0028D7D14EF60450CEF273
:1031600000004FF080510160BFF34F8FBFF36F8FAE
:10317000CBE700BF0024FFF78DF8204603B0BDE881
:10318000F08F00BF0024204603B0BDE8F08F0000A0
:103190002DE9F04381B000283ED0914605460E4609
:1031A000002943D0FFF712F9EFF311884FF05000D8
:1031B00080F31188BFF36F8FBFF34F8FAC6B002C80
:1031C00042D095F844702A6C52B1D5E9023081188A
:1031D000E960994224BF2968E9603046FDF7BCF8F0
:1031E000601EFF2FA86335D155F8100F00283BD083
:1031F000284600F0E5F90146B9F1000F4FF0010053
:1032000004D000291CBF0120C9F8000088F31188F0
:1032100001B0BDE8F08300BF4FF0500080F311888B
:10322000BFF36F8FBFF34F8FFEE700BF286C0028FE
:10323000B8D04FF0500080F31188BFF36F8FBFF309
:103240004F8F00BFFEE700BF002088F3118801B058
:10325000BDE8F083781C85F84400012088F31188CC
:1032600001B0BDE8F08300BF012088F3118801B0F0
:10327000BDE8F083B0B5D8B10D4619B30446FEF7EA
:10328000E5FF40F2D00CC2F2000CDCF818202968EF
:103290004B1C21D0D4E9000EDCF83830834221D019
:1032A00072451FD30124FEF7F5FF2046B0BD00BFD5
:1032B0004FF0500080F31188BFF36F8FBFF34F8F33
:1032C000FEE700BF4FF0500080F31188BFF36F8F0F
:1032D000BFF34F8FFEE700BF0024FEF7DBFF204661
:1032E000B0BD00BFA2EB0E0291420DD9881A286032
:1032F000DCF838002060DCF8180060600024FEF77D
:10330000C9FF2046B0BD00BF002001242860FEF7A1
:10331000C1FF2046B0BD00002DE9F04383B0074651
:103320009000984615468946FEF7CAFDF8B1064654
:103330005C20FEF7C5FDB8B10446DDE90A100022A5
:10334000266384F85920CDE90010384649462A46BC
:1033500043460294FEF7ECFA2046FEF75FF901209F
:1033600003B0BDE8F08300BF3046FEF7ABFF4FF07F
:10337000FF3003B0BDE8F08370B586B00B9CCCB1D4
:103380000C9E0EB35C250495049D5C2D26D1049DF6
:10339000DDF828C0022586F8595005AD3463CDE923
:1033A00000C50296FEF7C4FA3046FEF737F90598D5
:1033B00006B070BD4FF0500080F31188BFF36F8FDF
:1033C000BFF34F8FFEE700BF4FF0500080F311882E
:1033D000BFF36F8FBFF34F8FFEE700BF4FF050007A
:1033E00080F31188BFF36F8FBFF34F8FFEE70000AC
:1033F00040F2D000C2F20000016900290FBF012095
:103400004069B0FA80F0400918BF400070470000E2
:1034100040F2D000C2F200008069704780B5FEF72C
:10342000D5FF40F2D000C2F20000806980BD0000EC
:103430002DE9F04381B040F2D006C2F20006706977
:1034400040B1706B002401307063204601B0BDE8CC
:10345000F08300BFB06910F10109C6F8189020D3BD
:10346000F069006850B14FF0500080F31188BFF34D
:103470006F8FBFF34F8F00BFFEE700BFF069316A67
:10348000F1613062B06B0130B063F069006828B15F
:10349000F069C068C068406802E000BF4FF0FF30CC
:1034A000F062F06A40F228388145C2F2000801D289
:1034B00000242EE0F0690024006813E0F86A716AC5
:1034C000884288BF706200EB800008EB80002946CC
:1034D000FEF7A4FEF86A3168C96AF269884228BF1B
:1034E0000124106890B1F069C068C7683D4655F87E
:1034F000040F81450CD32846FEF720FEB86A002849
:10350000DCD007F11800FEF719FED7E74FF0FF30C7
:10351000F0623068C06A00EB800058F82000012893
:1035200088BF0124306B002818BF0124204601B059
:10353000BDE8F08370B588B140F2D006C2F2000653
:1035400004463068A0420BD04FF0500080F3118841
:10355000BFF36F8FBFF34F8FFEE700BF002070BD3A
:10356000206D18B3411EE06AE26C216590424FF075
:10357000000008BF70BDC1B9251D2846FEF7DEFD5D
:10358000E06CC0F13801E062A161716A884240F2EA
:10359000283188BF706200EB8000C2F2000101EBAD
:1035A00080002946FEF73AFE012070BD4FF0500022
:1035B00080F31188BFF36F8FBFF34F8FFEE70000DA
:1035C00070B5C068C5686DB105F118042046FEF7F6
:1035D000B5FD40F2D006C2F20006706960B106F196
:1035E00064001AE04FF0500080F31188BFF36F8F32
:1035F000BFF34F8FFEE700BF2C1D2046FEF79EFD58
:10360000E86A716A884240F2283188BF706200EB34
:103610008000C2F2000101EB80002146FEF7FEFDB2
:10362000E86A3168C96A884292BF0020012030638D
:1036300070BD00002DE9F04140F2D005C2F2000556
:10364000686968B1FEF702FE6869013868616869F7
:1036500080B10024FEF71EFE2046BDE8F08100BFC9
:103660004FF0500080F31188BFF36F8FBFF34F8F7F
:10367000FEE700BFE8680028EBD0686E88B340F230
:103680002836C2F200064FF0010800BF286FC76855
:1036900007F11800FEF752FD3C1D2046FEF74EFDD7
:1036A000F86A696A884288BF686200EB800006EBAE
:1036B00080002146FEF7B2FDF86A2968C96A88428F
:1036C00028BFC5F83080686E0028DFD1E86900683F
:1036D00020B1E869C068C068406801E04FF0FF3081
:1036E000E8626C6B4CB10126FFF7A2FE002818BF00
:1036F0002E63013CF8D100206863286B0028A8D015
:103700004EF60450CEF200004FF080510160BFF33E
:103710004F8F0124BFF36F8FFEF7BCFD2046BDE83D
:10372000F081000070B586B0FEF790FD40F24816BB
:10373000C2F20006306808BB06F114042046FEF70A
:103740002BFD06F128052846FEF726FD40F238221B
:1037500040F2D823C6E902450025C2F20002C2F2B7
:1037600000030A2010210095FFF70EFA306028B1FF
:1037700043F63C01C0F60001FEF758FEFEF78AFD55
:103780003068D8B10020CDE9040005A804A903AA37
:10379000FEF7F4FCDDE903200221059DCDE90010D0
:1037A00041F6C120C0F6000009A100230295FFF7F1
:1037B000E3FD706010B1012006B070BD4FF0500005
:1037C00080F31188BFF36F8FBFF34F8FFEE700BF09
:1037D000546D722053766300F1EE100A4FF6FF71BC
:1037E000C0F2C03120EA010040F04070E1EE100A62
:1037F00070470000000000000000010203040607FB
:10380000080900000000010203040000303800082D
:1038100000000000000000000000000000000000A8
:10382000000200001800000000000000000000007E
:1038300064656661756C745461736B00546D72518C
:1038400000746573745F7175657565007465737474
:10385000315461736B00746573745461736B000051
:10386000803800080000002070000000C40100083B
:10387000F03800087000002018500000E001000837
:1038800001000000100000004138000800000000A6
:103890000000000000000000000000000000000028
:1038A0005638000800000000000000000000000082
:1038B00000000000000400001800000000000000EC
:1038C000000000004C38000800000000000000006C
:1038D00000000000000000000004000018000000CC
:1038E00000000000000000000024F400AAAAAAAA18
:040000050800018965
:00000001FF
